{
  "contractName": "Land",
  "abi": [
    {
      "inputs": [],
      "stateMutability": "nonpayable",
      "type": "constructor"
    },
    {
      "anonymous": false,
      "inputs": [
        {
          "indexed": true,
          "internalType": "uint256",
          "name": "_landId",
          "type": "uint256"
        }
      ],
      "name": "AddingLand",
      "type": "event"
    },
    {
      "anonymous": false,
      "inputs": [
        {
          "indexed": false,
          "internalType": "address",
          "name": "_sellerId",
          "type": "address"
        }
      ],
      "name": "Landrequested",
      "type": "event"
    },
    {
      "anonymous": false,
      "inputs": [
        {
          "indexed": false,
          "internalType": "address",
          "name": "_registrationId",
          "type": "address"
        }
      ],
      "name": "Registration",
      "type": "event"
    },
    {
      "anonymous": false,
      "inputs": [
        {
          "indexed": false,
          "internalType": "address",
          "name": "_id",
          "type": "address"
        }
      ],
      "name": "Rejected",
      "type": "event"
    },
    {
      "anonymous": false,
      "inputs": [
        {
          "indexed": false,
          "internalType": "address",
          "name": "_id",
          "type": "address"
        }
      ],
      "name": "Verified",
      "type": "event"
    },
    {
      "anonymous": false,
      "inputs": [
        {
          "indexed": false,
          "internalType": "address",
          "name": "_buyerId",
          "type": "address"
        }
      ],
      "name": "requestApproved",
      "type": "event"
    },
    {
      "inputs": [
        {
          "internalType": "address",
          "name": "",
          "type": "address"
        }
      ],
      "name": "BuyerMapping",
      "outputs": [
        {
          "internalType": "address",
          "name": "id",
          "type": "address"
        },
        {
          "internalType": "string",
          "name": "name",
          "type": "string"
        },
        {
          "internalType": "uint256",
          "name": "age",
          "type": "uint256"
        },
        {
          "internalType": "string",
          "name": "city",
          "type": "string"
        },
        {
          "internalType": "string",
          "name": "aadharNumber",
          "type": "string"
        },
        {
          "internalType": "string",
          "name": "panNumber",
          "type": "string"
        },
        {
          "internalType": "string",
          "name": "document",
          "type": "string"
        },
        {
          "internalType": "string",
          "name": "email",
          "type": "string"
        }
      ],
      "stateMutability": "view",
      "type": "function",
      "constant": true
    },
    {
      "inputs": [
        {
          "internalType": "address",
          "name": "",
          "type": "address"
        }
      ],
      "name": "BuyerRejection",
      "outputs": [
        {
          "internalType": "bool",
          "name": "",
          "type": "bool"
        }
      ],
      "stateMutability": "view",
      "type": "function",
      "constant": true
    },
    {
      "inputs": [
        {
          "internalType": "address",
          "name": "",
          "type": "address"
        }
      ],
      "name": "BuyerVerification",
      "outputs": [
        {
          "internalType": "bool",
          "name": "",
          "type": "bool"
        }
      ],
      "stateMutability": "view",
      "type": "function",
      "constant": true
    },
    {
      "inputs": [
        {
          "internalType": "uint256",
          "name": "",
          "type": "uint256"
        }
      ],
      "name": "InspectorMapping",
      "outputs": [
        {
          "internalType": "uint256",
          "name": "id",
          "type": "uint256"
        },
        {
          "internalType": "string",
          "name": "name",
          "type": "string"
        },
        {
          "internalType": "uint256",
          "name": "age",
          "type": "uint256"
        },
        {
          "internalType": "string",
          "name": "designation",
          "type": "string"
        }
      ],
      "stateMutability": "view",
      "type": "function",
      "constant": true
    },
    {
      "inputs": [
        {
          "internalType": "uint256",
          "name": "",
          "type": "uint256"
        }
      ],
      "name": "LandOwner",
      "outputs": [
        {
          "internalType": "address",
          "name": "",
          "type": "address"
        }
      ],
      "stateMutability": "view",
      "type": "function",
      "constant": true
    },
    {
      "inputs": [
        {
          "internalType": "uint256",
          "name": "",
          "type": "uint256"
        }
      ],
      "name": "LandVerification",
      "outputs": [
        {
          "internalType": "bool",
          "name": "",
          "type": "bool"
        }
      ],
      "stateMutability": "view",
      "type": "function",
      "constant": true
    },
    {
      "inputs": [],
      "name": "Land_Inspector",
      "outputs": [
        {
          "internalType": "address",
          "name": "",
          "type": "address"
        }
      ],
      "stateMutability": "view",
      "type": "function",
      "constant": true
    },
    {
      "inputs": [
        {
          "internalType": "uint256",
          "name": "",
          "type": "uint256"
        }
      ],
      "name": "PaymentReceived",
      "outputs": [
        {
          "internalType": "bool",
          "name": "",
          "type": "bool"
        }
      ],
      "stateMutability": "view",
      "type": "function",
      "constant": true
    },
    {
      "inputs": [
        {
          "internalType": "address",
          "name": "",
          "type": "address"
        }
      ],
      "name": "RegisteredAddressMapping",
      "outputs": [
        {
          "internalType": "bool",
          "name": "",
          "type": "bool"
        }
      ],
      "stateMutability": "view",
      "type": "function",
      "constant": true
    },
    {
      "inputs": [
        {
          "internalType": "address",
          "name": "",
          "type": "address"
        }
      ],
      "name": "RegisteredBuyerMapping",
      "outputs": [
        {
          "internalType": "bool",
          "name": "",
          "type": "bool"
        }
      ],
      "stateMutability": "view",
      "type": "function",
      "constant": true
    },
    {
      "inputs": [
        {
          "internalType": "address",
          "name": "",
          "type": "address"
        }
      ],
      "name": "RegisteredSellerMapping",
      "outputs": [
        {
          "internalType": "bool",
          "name": "",
          "type": "bool"
        }
      ],
      "stateMutability": "view",
      "type": "function",
      "constant": true
    },
    {
      "inputs": [
        {
          "internalType": "uint256",
          "name": "",
          "type": "uint256"
        }
      ],
      "name": "RequestRejected",
      "outputs": [
        {
          "internalType": "bool",
          "name": "",
          "type": "bool"
        }
      ],
      "stateMutability": "view",
      "type": "function",
      "constant": true
    },
    {
      "inputs": [
        {
          "internalType": "uint256",
          "name": "",
          "type": "uint256"
        }
      ],
      "name": "RequestStatus",
      "outputs": [
        {
          "internalType": "bool",
          "name": "",
          "type": "bool"
        }
      ],
      "stateMutability": "view",
      "type": "function",
      "constant": true
    },
    {
      "inputs": [
        {
          "internalType": "uint256",
          "name": "",
          "type": "uint256"
        }
      ],
      "name": "RequestedLands",
      "outputs": [
        {
          "internalType": "bool",
          "name": "",
          "type": "bool"
        }
      ],
      "stateMutability": "view",
      "type": "function",
      "constant": true
    },
    {
      "inputs": [
        {
          "internalType": "uint256",
          "name": "",
          "type": "uint256"
        }
      ],
      "name": "RequestsMapping",
      "outputs": [
        {
          "internalType": "uint256",
          "name": "reqId",
          "type": "uint256"
        },
        {
          "internalType": "address",
          "name": "sellerId",
          "type": "address"
        },
        {
          "internalType": "address",
          "name": "buyerId",
          "type": "address"
        },
        {
          "internalType": "uint256",
          "name": "landId",
          "type": "uint256"
        }
      ],
      "stateMutability": "view",
      "type": "function",
      "constant": true
    },
    {
      "inputs": [
        {
          "internalType": "address",
          "name": "",
          "type": "address"
        }
      ],
      "name": "SellerMapping",
      "outputs": [
        {
          "internalType": "address",
          "name": "id",
          "type": "address"
        },
        {
          "internalType": "string",
          "name": "name",
          "type": "string"
        },
        {
          "internalType": "uint256",
          "name": "age",
          "type": "uint256"
        },
        {
          "internalType": "string",
          "name": "aadharNumber",
          "type": "string"
        },
        {
          "internalType": "string",
          "name": "panNumber",
          "type": "string"
        },
        {
          "internalType": "string",
          "name": "landsOwned",
          "type": "string"
        },
        {
          "internalType": "string",
          "name": "document",
          "type": "string"
        }
      ],
      "stateMutability": "view",
      "type": "function",
      "constant": true
    },
    {
      "inputs": [
        {
          "internalType": "address",
          "name": "",
          "type": "address"
        }
      ],
      "name": "SellerRejection",
      "outputs": [
        {
          "internalType": "bool",
          "name": "",
          "type": "bool"
        }
      ],
      "stateMutability": "view",
      "type": "function",
      "constant": true
    },
    {
      "inputs": [
        {
          "internalType": "address",
          "name": "",
          "type": "address"
        }
      ],
      "name": "SellerVerification",
      "outputs": [
        {
          "internalType": "bool",
          "name": "",
          "type": "bool"
        }
      ],
      "stateMutability": "view",
      "type": "function",
      "constant": true
    },
    {
      "inputs": [
        {
          "internalType": "uint256",
          "name": "",
          "type": "uint256"
        }
      ],
      "name": "buyers",
      "outputs": [
        {
          "internalType": "address",
          "name": "",
          "type": "address"
        }
      ],
      "stateMutability": "view",
      "type": "function",
      "constant": true
    },
    {
      "inputs": [],
      "name": "buyersCount",
      "outputs": [
        {
          "internalType": "uint256",
          "name": "",
          "type": "uint256"
        }
      ],
      "stateMutability": "view",
      "type": "function",
      "constant": true
    },
    {
      "inputs": [],
      "name": "inspectorsCount",
      "outputs": [
        {
          "internalType": "uint256",
          "name": "",
          "type": "uint256"
        }
      ],
      "stateMutability": "view",
      "type": "function",
      "constant": true
    },
    {
      "inputs": [
        {
          "internalType": "uint256",
          "name": "",
          "type": "uint256"
        }
      ],
      "name": "lands",
      "outputs": [
        {
          "internalType": "uint256",
          "name": "id",
          "type": "uint256"
        },
        {
          "internalType": "uint256",
          "name": "area",
          "type": "uint256"
        },
        {
          "internalType": "string",
          "name": "city",
          "type": "string"
        },
        {
          "internalType": "string",
          "name": "state",
          "type": "string"
        },
        {
          "internalType": "uint256",
          "name": "landPrice",
          "type": "uint256"
        },
        {
          "internalType": "uint256",
          "name": "propertyPID",
          "type": "uint256"
        },
        {
          "internalType": "uint256",
          "name": "physicalSurveyNumber",
          "type": "uint256"
        },
        {
          "internalType": "string",
          "name": "ipfsHash",
          "type": "string"
        },
        {
          "internalType": "string",
          "name": "document",
          "type": "string"
        }
      ],
      "stateMutability": "view",
      "type": "function",
      "constant": true
    },
    {
      "inputs": [],
      "name": "landsCount",
      "outputs": [
        {
          "internalType": "uint256",
          "name": "",
          "type": "uint256"
        }
      ],
      "stateMutability": "view",
      "type": "function",
      "constant": true
    },
    {
      "inputs": [],
      "name": "requestsCount",
      "outputs": [
        {
          "internalType": "uint256",
          "name": "",
          "type": "uint256"
        }
      ],
      "stateMutability": "view",
      "type": "function",
      "constant": true
    },
    {
      "inputs": [
        {
          "internalType": "uint256",
          "name": "",
          "type": "uint256"
        }
      ],
      "name": "sellers",
      "outputs": [
        {
          "internalType": "address",
          "name": "",
          "type": "address"
        }
      ],
      "stateMutability": "view",
      "type": "function",
      "constant": true
    },
    {
      "inputs": [],
      "name": "sellersCount",
      "outputs": [
        {
          "internalType": "uint256",
          "name": "",
          "type": "uint256"
        }
      ],
      "stateMutability": "view",
      "type": "function",
      "constant": true
    },
    {
      "inputs": [],
      "name": "getLandsCount",
      "outputs": [
        {
          "internalType": "uint256",
          "name": "",
          "type": "uint256"
        }
      ],
      "stateMutability": "view",
      "type": "function",
      "constant": true
    },
    {
      "inputs": [],
      "name": "getBuyersCount",
      "outputs": [
        {
          "internalType": "uint256",
          "name": "",
          "type": "uint256"
        }
      ],
      "stateMutability": "view",
      "type": "function",
      "constant": true
    },
    {
      "inputs": [],
      "name": "getSellersCount",
      "outputs": [
        {
          "internalType": "uint256",
          "name": "",
          "type": "uint256"
        }
      ],
      "stateMutability": "view",
      "type": "function",
      "constant": true
    },
    {
      "inputs": [],
      "name": "getRequestsCount",
      "outputs": [
        {
          "internalType": "uint256",
          "name": "",
          "type": "uint256"
        }
      ],
      "stateMutability": "view",
      "type": "function",
      "constant": true
    },
    {
      "inputs": [
        {
          "internalType": "uint256",
          "name": "i",
          "type": "uint256"
        }
      ],
      "name": "getArea",
      "outputs": [
        {
          "internalType": "uint256",
          "name": "",
          "type": "uint256"
        }
      ],
      "stateMutability": "view",
      "type": "function",
      "constant": true
    },
    {
      "inputs": [
        {
          "internalType": "uint256",
          "name": "i",
          "type": "uint256"
        }
      ],
      "name": "getCity",
      "outputs": [
        {
          "internalType": "string",
          "name": "",
          "type": "string"
        }
      ],
      "stateMutability": "view",
      "type": "function",
      "constant": true
    },
    {
      "inputs": [
        {
          "internalType": "uint256",
          "name": "i",
          "type": "uint256"
        }
      ],
      "name": "getState",
      "outputs": [
        {
          "internalType": "string",
          "name": "",
          "type": "string"
        }
      ],
      "stateMutability": "view",
      "type": "function",
      "constant": true
    },
    {
      "inputs": [
        {
          "internalType": "uint256",
          "name": "i",
          "type": "uint256"
        }
      ],
      "name": "getPrice",
      "outputs": [
        {
          "internalType": "uint256",
          "name": "",
          "type": "uint256"
        }
      ],
      "stateMutability": "view",
      "type": "function",
      "constant": true
    },
    {
      "inputs": [
        {
          "internalType": "uint256",
          "name": "i",
          "type": "uint256"
        }
      ],
      "name": "getPID",
      "outputs": [
        {
          "internalType": "uint256",
          "name": "",
          "type": "uint256"
        }
      ],
      "stateMutability": "view",
      "type": "function",
      "constant": true
    },
    {
      "inputs": [
        {
          "internalType": "uint256",
          "name": "i",
          "type": "uint256"
        }
      ],
      "name": "getSurveyNumber",
      "outputs": [
        {
          "internalType": "uint256",
          "name": "",
          "type": "uint256"
        }
      ],
      "stateMutability": "view",
      "type": "function",
      "constant": true
    },
    {
      "inputs": [
        {
          "internalType": "uint256",
          "name": "i",
          "type": "uint256"
        }
      ],
      "name": "getImage",
      "outputs": [
        {
          "internalType": "string",
          "name": "",
          "type": "string"
        }
      ],
      "stateMutability": "view",
      "type": "function",
      "constant": true
    },
    {
      "inputs": [
        {
          "internalType": "uint256",
          "name": "i",
          "type": "uint256"
        }
      ],
      "name": "getDocument",
      "outputs": [
        {
          "internalType": "string",
          "name": "",
          "type": "string"
        }
      ],
      "stateMutability": "view",
      "type": "function",
      "constant": true
    },
    {
      "inputs": [
        {
          "internalType": "uint256",
          "name": "id",
          "type": "uint256"
        }
      ],
      "name": "getLandOwner",
      "outputs": [
        {
          "internalType": "address",
          "name": "",
          "type": "address"
        }
      ],
      "stateMutability": "view",
      "type": "function",
      "constant": true
    },
    {
      "inputs": [
        {
          "internalType": "address",
          "name": "_sellerId",
          "type": "address"
        }
      ],
      "name": "verifySeller",
      "outputs": [],
      "stateMutability": "nonpayable",
      "type": "function"
    },
    {
      "inputs": [
        {
          "internalType": "address",
          "name": "_sellerId",
          "type": "address"
        }
      ],
      "name": "rejectSeller",
      "outputs": [],
      "stateMutability": "nonpayable",
      "type": "function"
    },
    {
      "inputs": [
        {
          "internalType": "address",
          "name": "_buyerId",
          "type": "address"
        }
      ],
      "name": "verifyBuyer",
      "outputs": [],
      "stateMutability": "nonpayable",
      "type": "function"
    },
    {
      "inputs": [
        {
          "internalType": "address",
          "name": "_buyerId",
          "type": "address"
        }
      ],
      "name": "rejectBuyer",
      "outputs": [],
      "stateMutability": "nonpayable",
      "type": "function"
    },
    {
      "inputs": [
        {
          "internalType": "uint256",
          "name": "_landId",
          "type": "uint256"
        }
      ],
      "name": "verifyLand",
      "outputs": [],
      "stateMutability": "nonpayable",
      "type": "function"
    },
    {
      "inputs": [
        {
          "internalType": "uint256",
          "name": "_id",
          "type": "uint256"
        }
      ],
      "name": "isLandVerified",
      "outputs": [
        {
          "internalType": "bool",
          "name": "",
          "type": "bool"
        }
      ],
      "stateMutability": "view",
      "type": "function",
      "constant": true
    },
    {
      "inputs": [
        {
          "internalType": "address",
          "name": "_id",
          "type": "address"
        }
      ],
      "name": "isVerified",
      "outputs": [
        {
          "internalType": "bool",
          "name": "",
          "type": "bool"
        }
      ],
      "stateMutability": "view",
      "type": "function",
      "constant": true
    },
    {
      "inputs": [
        {
          "internalType": "address",
          "name": "_id",
          "type": "address"
        }
      ],
      "name": "isRejected",
      "outputs": [
        {
          "internalType": "bool",
          "name": "",
          "type": "bool"
        }
      ],
      "stateMutability": "view",
      "type": "function",
      "constant": true
    },
    {
      "inputs": [
        {
          "internalType": "address",
          "name": "_id",
          "type": "address"
        }
      ],
      "name": "isSeller",
      "outputs": [
        {
          "internalType": "bool",
          "name": "",
          "type": "bool"
        }
      ],
      "stateMutability": "view",
      "type": "function",
      "constant": true
    },
    {
      "inputs": [
        {
          "internalType": "address",
          "name": "_id",
          "type": "address"
        }
      ],
      "name": "isLandInspector",
      "outputs": [
        {
          "internalType": "bool",
          "name": "",
          "type": "bool"
        }
      ],
      "stateMutability": "view",
      "type": "function",
      "constant": true
    },
    {
      "inputs": [
        {
          "internalType": "address",
          "name": "_id",
          "type": "address"
        }
      ],
      "name": "isBuyer",
      "outputs": [
        {
          "internalType": "bool",
          "name": "",
          "type": "bool"
        }
      ],
      "stateMutability": "view",
      "type": "function",
      "constant": true
    },
    {
      "inputs": [
        {
          "internalType": "address",
          "name": "_id",
          "type": "address"
        }
      ],
      "name": "isRegistered",
      "outputs": [
        {
          "internalType": "bool",
          "name": "",
          "type": "bool"
        }
      ],
      "stateMutability": "view",
      "type": "function",
      "constant": true
    },
    {
      "inputs": [
        {
          "internalType": "uint256",
          "name": "_area",
          "type": "uint256"
        },
        {
          "internalType": "string",
          "name": "_city",
          "type": "string"
        },
        {
          "internalType": "string",
          "name": "_state",
          "type": "string"
        },
        {
          "internalType": "uint256",
          "name": "landPrice",
          "type": "uint256"
        },
        {
          "internalType": "uint256",
          "name": "_propertyPID",
          "type": "uint256"
        },
        {
          "internalType": "uint256",
          "name": "_surveyNum",
          "type": "uint256"
        },
        {
          "internalType": "string",
          "name": "_ipfsHash",
          "type": "string"
        },
        {
          "internalType": "string",
          "name": "_document",
          "type": "string"
        }
      ],
      "name": "addLand",
      "outputs": [],
      "stateMutability": "nonpayable",
      "type": "function"
    },
    {
      "inputs": [
        {
          "internalType": "string",
          "name": "_name",
          "type": "string"
        },
        {
          "internalType": "uint256",
          "name": "_age",
          "type": "uint256"
        },
        {
          "internalType": "string",
          "name": "_aadharNumber",
          "type": "string"
        },
        {
          "internalType": "string",
          "name": "_panNumber",
          "type": "string"
        },
        {
          "internalType": "string",
          "name": "_landsOwned",
          "type": "string"
        },
        {
          "internalType": "string",
          "name": "_document",
          "type": "string"
        }
      ],
      "name": "registerSeller",
      "outputs": [],
      "stateMutability": "nonpayable",
      "type": "function"
    },
    {
      "inputs": [
        {
          "internalType": "string",
          "name": "_name",
          "type": "string"
        },
        {
          "internalType": "uint256",
          "name": "_age",
          "type": "uint256"
        },
        {
          "internalType": "string",
          "name": "_aadharNumber",
          "type": "string"
        },
        {
          "internalType": "string",
          "name": "_panNumber",
          "type": "string"
        },
        {
          "internalType": "string",
          "name": "_landsOwned",
          "type": "string"
        }
      ],
      "name": "updateSeller",
      "outputs": [],
      "stateMutability": "nonpayable",
      "type": "function"
    },
    {
      "inputs": [],
      "name": "getSeller",
      "outputs": [
        {
          "internalType": "address[]",
          "name": "",
          "type": "address[]"
        }
      ],
      "stateMutability": "view",
      "type": "function",
      "constant": true
    },
    {
      "inputs": [
        {
          "internalType": "address",
          "name": "i",
          "type": "address"
        }
      ],
      "name": "getSellerDetails",
      "outputs": [
        {
          "internalType": "string",
          "name": "",
          "type": "string"
        },
        {
          "internalType": "uint256",
          "name": "",
          "type": "uint256"
        },
        {
          "internalType": "string",
          "name": "",
          "type": "string"
        },
        {
          "internalType": "string",
          "name": "",
          "type": "string"
        },
        {
          "internalType": "string",
          "name": "",
          "type": "string"
        },
        {
          "internalType": "string",
          "name": "",
          "type": "string"
        }
      ],
      "stateMutability": "view",
      "type": "function",
      "constant": true
    },
    {
      "inputs": [
        {
          "internalType": "string",
          "name": "_name",
          "type": "string"
        },
        {
          "internalType": "uint256",
          "name": "_age",
          "type": "uint256"
        },
        {
          "internalType": "string",
          "name": "_city",
          "type": "string"
        },
        {
          "internalType": "string",
          "name": "_aadharNumber",
          "type": "string"
        },
        {
          "internalType": "string",
          "name": "_panNumber",
          "type": "string"
        },
        {
          "internalType": "string",
          "name": "_document",
          "type": "string"
        },
        {
          "internalType": "string",
          "name": "_email",
          "type": "string"
        }
      ],
      "name": "registerBuyer",
      "outputs": [],
      "stateMutability": "nonpayable",
      "type": "function"
    },
    {
      "inputs": [
        {
          "internalType": "string",
          "name": "_name",
          "type": "string"
        },
        {
          "internalType": "uint256",
          "name": "_age",
          "type": "uint256"
        },
        {
          "internalType": "string",
          "name": "_city",
          "type": "string"
        },
        {
          "internalType": "string",
          "name": "_aadharNumber",
          "type": "string"
        },
        {
          "internalType": "string",
          "name": "_email",
          "type": "string"
        },
        {
          "internalType": "string",
          "name": "_panNumber",
          "type": "string"
        }
      ],
      "name": "updateBuyer",
      "outputs": [],
      "stateMutability": "nonpayable",
      "type": "function"
    },
    {
      "inputs": [],
      "name": "getBuyer",
      "outputs": [
        {
          "internalType": "address[]",
          "name": "",
          "type": "address[]"
        }
      ],
      "stateMutability": "view",
      "type": "function",
      "constant": true
    },
    {
      "inputs": [
        {
          "internalType": "address",
          "name": "i",
          "type": "address"
        }
      ],
      "name": "getBuyerDetails",
      "outputs": [
        {
          "internalType": "string",
          "name": "",
          "type": "string"
        },
        {
          "internalType": "string",
          "name": "",
          "type": "string"
        },
        {
          "internalType": "string",
          "name": "",
          "type": "string"
        },
        {
          "internalType": "string",
          "name": "",
          "type": "string"
        },
        {
          "internalType": "string",
          "name": "",
          "type": "string"
        },
        {
          "internalType": "uint256",
          "name": "",
          "type": "uint256"
        },
        {
          "internalType": "string",
          "name": "",
          "type": "string"
        }
      ],
      "stateMutability": "view",
      "type": "function",
      "constant": true
    },
    {
      "inputs": [
        {
          "internalType": "address",
          "name": "_sellerId",
          "type": "address"
        },
        {
          "internalType": "uint256",
          "name": "_landId",
          "type": "uint256"
        }
      ],
      "name": "requestLand",
      "outputs": [],
      "stateMutability": "nonpayable",
      "type": "function"
    },
    {
      "inputs": [
        {
          "internalType": "uint256",
          "name": "i",
          "type": "uint256"
        }
      ],
      "name": "getRequestDetails",
      "outputs": [
        {
          "internalType": "address",
          "name": "",
          "type": "address"
        },
        {
          "internalType": "address",
          "name": "",
          "type": "address"
        },
        {
          "internalType": "uint256",
          "name": "",
          "type": "uint256"
        },
        {
          "internalType": "bool",
          "name": "",
          "type": "bool"
        }
      ],
      "stateMutability": "view",
      "type": "function",
      "constant": true
    },
    {
      "inputs": [
        {
          "internalType": "uint256",
          "name": "_id",
          "type": "uint256"
        }
      ],
      "name": "isRequested",
      "outputs": [
        {
          "internalType": "bool",
          "name": "",
          "type": "bool"
        }
      ],
      "stateMutability": "view",
      "type": "function",
      "constant": true
    },
    {
      "inputs": [
        {
          "internalType": "uint256",
          "name": "_id",
          "type": "uint256"
        }
      ],
      "name": "isApproved",
      "outputs": [
        {
          "internalType": "bool",
          "name": "",
          "type": "bool"
        }
      ],
      "stateMutability": "view",
      "type": "function",
      "constant": true
    },
    {
      "inputs": [
        {
          "internalType": "uint256",
          "name": "_reqId",
          "type": "uint256"
        }
      ],
      "name": "approveRequest",
      "outputs": [],
      "stateMutability": "nonpayable",
      "type": "function"
    },
    {
      "inputs": [
        {
          "internalType": "uint256",
          "name": "_landId",
          "type": "uint256"
        },
        {
          "internalType": "address",
          "name": "_newOwner",
          "type": "address"
        }
      ],
      "name": "LandOwnershipTransfer",
      "outputs": [],
      "stateMutability": "nonpayable",
      "type": "function"
    },
    {
      "inputs": [
        {
          "internalType": "uint256",
          "name": "_landId",
          "type": "uint256"
        }
      ],
      "name": "isPaid",
      "outputs": [
        {
          "internalType": "bool",
          "name": "",
          "type": "bool"
        }
      ],
      "stateMutability": "view",
      "type": "function",
      "constant": true
    },
    {
      "inputs": [
        {
          "internalType": "address payable",
          "name": "_receiver",
          "type": "address"
        },
        {
          "internalType": "uint256",
          "name": "_landId",
          "type": "uint256"
        }
      ],
      "name": "payment",
      "outputs": [],
      "stateMutability": "payable",
      "type": "function",
      "payable": true
    },
    {
      "inputs": [
        {
          "internalType": "uint256",
          "name": "_reqId",
          "type": "uint256"
        }
      ],
      "name": "getBuyerInfoForRequest",
      "outputs": [
        {
          "internalType": "string",
          "name": "name",
          "type": "string"
        },
        {
          "internalType": "string",
          "name": "city",
          "type": "string"
        },
        {
          "internalType": "string",
          "name": "email",
          "type": "string"
        }
      ],
      "stateMutability": "view",
      "type": "function",
      "constant": true
    },
    {
      "inputs": [
        {
          "internalType": "uint256",
          "name": "_reqId",
          "type": "uint256"
        }
      ],
      "name": "rejectRequest",
      "outputs": [],
      "stateMutability": "nonpayable",
      "type": "function"
    }
  ],
  "bytecode": "0x60806040523480156200001157600080fd5b50601280546001600160a01b03191673b985ce8ae1a06a6001f58d55c0b3d961b5e4df2e179055604080518082018252600b81526a496e73706563746f72203160a81b6020808301919091528251808401909352600e83526d2a32b439b4b61026b0b730b3b2b960911b908301526200008d91602d9062000093565b620002b5565b60168054906000620000a58362000120565b90915550506040805160808101825260165480825260208083018781528385018790526060840186905260009283526001918290529390912082518155925191929190820190620000f79082620001e9565b506040820151600282015560608201516003820190620001189082620001e9565b505050505050565b6000600182016200014157634e487b7160e01b600052601160045260246000fd5b5060010190565b634e487b7160e01b600052604160045260246000fd5b600181811c908216806200017357607f821691505b6020821081036200019457634e487b7160e01b600052602260045260246000fd5b50919050565b601f821115620001e457600081815260208120601f850160051c81016020861015620001c35750805b601f850160051c820191505b818110156200011857828155600101620001cf565b505050565b81516001600160401b0381111562000205576200020562000148565b6200021d816200021684546200015e565b846200019a565b602080601f8311600181146200025557600084156200023c5750858301515b600019600386901b1c1916600185901b17855562000118565b600085815260208120601f198616915b82811015620002865788860151825594840194600190910190840162000265565b5085821015620002a55787850151600019600388901b60f8161c191681555b5050505050600190811b01905550565b613c6480620002c56000396000f3fe6080604052600436106104055760003560e01c8063a47d4c0211610213578063dd9d122d11610123578063e7572230116100ab578063f34d4c631161007a578063f34d4c6314610e05578063f3f0c21814610e8f578063f58f85b514610eaf578063f9c43bdf14610edf578063fbfa4b7f14610eff57600080fd5b8063e757223014610d80578063ee95feaf14610db0578063f0d3a9df14610dd0578063f2aa821814610de557600080fd5b8063e1b2460a116100f2578063e1b2460a14610cac578063e1ecc79414610cdb578063e261f1e514610cfb578063e4b2611514610d30578063e530c40014610d6057600080fd5b8063dd9d122d14610c14578063dec091ad14610c29578063def936c314610c5c578063e165af8714610c8c57600080fd5b8063bed403c7116101a6578063cee26ed511610175578063cee26ed514610b7f578063d1760e6014610b9f578063d713065114610bbf578063d7d1bbdb14610bdf578063dbd0e1b614610bff57600080fd5b8063bed403c714610aff578063c3c5a54714610b1f578063c560b4e514610b3f578063cd392a8314610b5f57600080fd5b8063b0a5dcd3116101e2578063b0a5dcd314610a18578063b3c8fe8514610a97578063b9209e3314610ac9578063ba49a08c14610ae957600080fd5b8063a47d4c0214610954578063a4a0f6c014610984578063a6dc41fb146109b4578063ab517074146109e457600080fd5b80634e2cba09116103195780637910867b116102a1578063933836481161027057806393383648146108a2578063941e2426146108c2578063989376b4146108d85780639ae9711e146109085780639dc1bfa91461091e57600080fd5b80637910867b1461080257806383546501146108225780638965cde11461085257806389d213541461087257600080fd5b80636490c7a8116102e85780636490c7a81461074c57806367a09c231461077c5780636814800b1461078f57806368cfe6ee146107af5780636cbf6cf8146107e257600080fd5b80634e2cba09146106aa578063601e7c34146106ca578063603daf9a146106fa57806363f171431461071c57600080fd5b80631fdac08e1161039c5780633410452a1161036b5780633410452a146106055780633f9b250a1461061a57806344c9af281461063a57806348a46bd31461065a5780634daa9dae1461067a57600080fd5b80631fdac08e146105685780632607aafa146105985780632a55feec146105c55780632d7788db146105e557600080fd5b8063170f3909116103d8578063170f3909146104b45780631869a38b146104ec5780631a07f76e146105225780631c9afd0f1461055257600080fd5b806307d56ac01461040a57806311ce462c1461044d578063155fec721461046f57806316d9d6661461049f575b600080fd5b34801561041657600080fd5b5061043a610425366004613257565b60009081526020819052604090206005015490565b6040519081526020015b60405180910390f35b34801561045957600080fd5b5061046d610468366004613313565b610f15565b005b34801561047b57600080fd5b5061048f61048a366004613257565b610ff4565b6040519015158152602001610444565b3480156104ab57600080fd5b5060155461043a565b3480156104c057600080fd5b506012546104d4906001600160a01b031681565b6040516001600160a01b039091168152602001610444565b3480156104f857600080fd5b506104d4610507366004613257565b6000908152600d60205260409020546001600160a01b031690565b34801561052e57600080fd5b5061048f61053d366004613257565b60106020526000908152604090205460ff1681565b34801561055e57600080fd5b5061043a60155481565b34801561057457600080fd5b5061048f610583366004613257565b60116020526000908152604090205460ff1681565b3480156105a457600080fd5b506105b86105b3366004613257565b611018565b6040516104449190613433565b3480156105d157600080fd5b5061048f6105e0366004613465565b6110bd565b3480156105f157600080fd5b5061046d610600366004613257565b6110e6565b34801561061157600080fd5b5060195461043a565b34801561062657600080fd5b506105b8610635366004613257565b611186565b34801561064657600080fd5b506105b8610655366004613257565b6111a6565b34801561066657600080fd5b5061048f610675366004613465565b6111c6565b34801561068657600080fd5b5061048f610695366004613257565b600f6020526000908152604090205460ff1681565b3480156106b657600080fd5b5061046d6106c5366004613482565b611212565b3480156106d657600080fd5b5061048f6106e5366004613465565b60066020526000908152604090205460ff1681565b34801561070657600080fd5b5061070f6113e7565b6040516104449190613582565b34801561072857600080fd5b5061048f610737366004613465565b60096020526000908152604090205460ff1681565b34801561075857600080fd5b5061043a610767366004613257565b60009081526020819052604090206001015490565b61046d61078a3660046135cf565b611449565b34801561079b57600080fd5b5061046d6107aa366004613465565b61149b565b3480156107bb57600080fd5b506107cf6107ca366004613465565b611508565b60405161044497969594939291906135fb565b3480156107ee57600080fd5b5061048f6107fd366004613257565b6118b3565b34801561080e57600080fd5b5061048f61081d366004613257565b6118d2565b34801561082e57600080fd5b5061048f61083d366004613257565b600c6020526000908152604090205460ff1681565b34801561085e57600080fd5b5061046d61086d366004613465565b6118f1565b34801561087e57600080fd5b5061048f61088d366004613257565b600e6020526000908152604090205460ff1681565b3480156108ae57600080fd5b5061046d6108bd366004613313565b611957565b3480156108ce57600080fd5b5061043a60165481565b3480156108e457600080fd5b5061048f6108f3366004613465565b600b6020526000908152604090205460ff1681565b34801561091457600080fd5b5061043a60175481565b34801561092a57600080fd5b506104d4610939366004613257565b600d602052600090815260409020546001600160a01b031681565b34801561096057600080fd5b5061048f61096f366004613465565b60076020526000908152604090205460ff1681565b34801561099057600080fd5b5061043a61099f366004613257565b60009081526020819052604090206006015490565b3480156109c057600080fd5b5061048f6109cf366004613465565b600a6020526000908152604090205460ff1681565b3480156109f057600080fd5b50610a046109ff366004613465565b611b0e565b604051610444989796959493929190613684565b348015610a2457600080fd5b50610a67610a33366004613257565b600460205260009081526040902080546001820154600283015460039093015491926001600160a01b039182169291169084565b60405161044494939291909384526001600160a01b03928316602085015291166040830152606082015260800190565b348015610aa357600080fd5b50610ab7610ab2366004613465565b611e89565b60405161044496959493929190613722565b348015610ad557600080fd5b5061048f610ae4366004613465565b6121a1565b348015610af557600080fd5b5061043a60185481565b348015610b0b57600080fd5b5061046d610b1a366004613796565b6121ec565b348015610b2b57600080fd5b5061048f610b3a366004613465565b61222c565b348015610b4b57600080fd5b5061046d610b5a3660046137c6565b612255565b348015610b6b57600080fd5b5061048f610b7a366004613257565b612317565b348015610b8b57600080fd5b506104d4610b9a366004613257565b612336565b348015610bab57600080fd5b5061046d610bba366004613465565b612360565b348015610bcb57600080fd5b506105b8610bda366004613257565b6123c6565b348015610beb57600080fd5b5061046d610bfa366004613257565b6123e6565b348015610c0b57600080fd5b5061070f612423565b348015610c2057600080fd5b5060175461043a565b348015610c3557600080fd5b50610c49610c44366004613465565b612483565b604051610444979695949392919061387d565b348015610c6857600080fd5b50610c7c610c77366004613257565b612770565b60405161044494939291906138f5565b348015610c9857600080fd5b5061048f610ca7366004613465565b6128a8565b348015610cb857600080fd5b50610ccc610cc7366004613257565b6128d0565b60405161044493929190613931565b348015610ce757600080fd5b5061046d610cf6366004613465565b612cb2565b348015610d0757600080fd5b50610d1b610d16366004613257565b612d18565b60405161044499989796959493929190613974565b348015610d3c57600080fd5b5061048f610d4b366004613465565b60086020526000908152604090205460ff1681565b348015610d6c57600080fd5b5061046d610d7b3660046139f3565b612f7f565b348015610d8c57600080fd5b5061043a610d9b366004613257565b60009081526020819052604090206004015490565b348015610dbc57600080fd5b5061048f610dcb366004613465565b6130e2565b348015610ddc57600080fd5b5060185461043a565b348015610df157600080fd5b506104d4610e00366004613257565b61310b565b348015610e1157600080fd5b50610e62610e20366004613257565b600090815260046020908152604080832060018101546002820154600390920154600e90945291909320546001600160a01b0391821694919093169260ff1690565b604080516001600160a01b0395861681529490931660208501529183015215156060820152608001610444565b348015610e9b57600080fd5b5061046d610eaa3660046135cf565b61311b565b348015610ebb57600080fd5b5061048f610eca366004613465565b60056020526000908152604090205460ff1681565b348015610eeb57600080fd5b5061046d610efa366004613257565b61322a565b348015610f0b57600080fd5b5061043a60195481565b3360009081526005602052604090205460ff168015610f4a5750336000818152600360205260409020546001600160a01b0316145b610f5357600080fd5b336000908152600360205260409020600101610f6f8782613b47565b503360009081526003602081905260409091206002810187905501610f948582613b47565b50336000908152600360205260409020600401610fb18482613b47565b50336000908152600360205260409020600701610fce8382613b47565b50336000908152600360205260409020600501610feb8282613b47565b50505050505050565b6000818152600f602052604081205460ff161561101357506001919050565b919050565b600081815260208190526040902060070180546060919061103890613ac7565b80601f016020809104026020016040519081016040528092919081815260200182805461106490613ac7565b80156110b15780601f10611086576101008083540402835291602001916110b1565b820191906000526020600020905b81548152906001019060200180831161109457829003601f168201915b50505050509050919050565b6001600160a01b03811660009081526007602052604081205460ff161561101357506001919050565b6110ef336130e2565b80156110ff57506110ff336121a1565b61110857600080fd5b6000818152600e602052604090205460ff161561116b5760405162461bcd60e51b815260206004820152601860248201527f5265717565737420616c726561647920617070726f7665640000000000000000604482015260640160405180910390fd5b6000908152601160205260409020805460ff19166001179055565b600081815260208190526040902060080180546060919061103890613ac7565b600081815260208190526040902060030180546060919061103890613ac7565b6001600160a01b03811660009081526009602052604081205460ff168061120557506001600160a01b0382166000908152600b602052604090205460ff165b1561101357506001919050565b3360009081526005602052604090205460ff161561122f57600080fd5b3360009081526005602090815260408083208054600160ff19918216811790925560079093529083208054909216179055601880549161126e83613c07565b909155505060408051610100810182523380825260208083018b81528385018b9052606084018a90526080840189905260a0840188905260c0840187905260e0840186905260009283526003909152929020815181546001600160a01b0319166001600160a01b03909116178155915190919060018201906112f09082613b47565b50604082015160028201556060820151600382019061130f9082613b47565b50608082015160048201906113249082613b47565b5060a082015160058201906113399082613b47565b5060c0820151600682019061134e9082613b47565b5060e082015160078201906113639082613b47565b5050601480546001810182556000919091527fce6d7b5282bd9a3661ae061feed1dbda4e52ab073b1f9285be6e155d9c38d4ec0180546001600160a01b031916339081179091556040519081527f478f5152d8fc568db3f8de9fb402fd9d98a1a7541ecfe434e59cf574fbfc5524915060200160405180910390a150505050505050565b6060601480548060200260200160405190810160405280929190818152602001828054801561143f57602002820191906000526020600020905b81546001600160a01b03168152600190910190602001808311611421575b5050505050905090565b600081815260106020526040808220805460ff19166001179055516001600160a01b038416913480156108fc02929091818181858888f19350505050158015611496573d6000803e3d6000fd5b505050565b6114a4336128a8565b6114ad57600080fd5b6001600160a01b0381166000818152600a6020908152604091829020805460ff1916600117905590519182527f6a6455914f452787eb3985452aceedc1000fb545e394eb3b370e3d08958e0a5b91015b60405180910390a150565b6001600160a01b0381166000908152600360208190526040822060028101546001820180546060958695869586958695939486949383019260058101926006820192600783019260040190879061155e90613ac7565b80601f016020809104026020016040519081016040528092919081815260200182805461158a90613ac7565b80156115d75780601f106115ac576101008083540402835291602001916115d7565b820191906000526020600020905b8154815290600101906020018083116115ba57829003601f168201915b505050505096508580546115ea90613ac7565b80601f016020809104026020016040519081016040528092919081815260200182805461161690613ac7565b80156116635780601f1061163857610100808354040283529160200191611663565b820191906000526020600020905b81548152906001019060200180831161164657829003601f168201915b5050505050955084805461167690613ac7565b80601f01602080910402602001604051908101604052809291908181526020018280546116a290613ac7565b80156116ef5780601f106116c4576101008083540402835291602001916116ef565b820191906000526020600020905b8154815290600101906020018083116116d257829003601f168201915b5050505050945083805461170290613ac7565b80601f016020809104026020016040519081016040528092919081815260200182805461172e90613ac7565b801561177b5780601f106117505761010080835404028352916020019161177b565b820191906000526020600020905b81548152906001019060200180831161175e57829003601f168201915b5050505050935082805461178e90613ac7565b80601f01602080910402602001604051908101604052809291908181526020018280546117ba90613ac7565b80156118075780601f106117dc57610100808354040283529160200191611807565b820191906000526020600020905b8154815290600101906020018083116117ea57829003601f168201915b5050505050925080805461181a90613ac7565b80601f016020809104026020016040519081016040528092919081815260200182805461184690613ac7565b80156118935780601f1061186857610100808354040283529160200191611893565b820191906000526020600020905b81548152906001019060200180831161187657829003601f168201915b505050505090509650965096509650965096509650919395979092949650565b6000818152600c602052604081205460ff161561101357506001919050565b6000818152600e602052604081205460ff161561101357506001919050565b6118fa336128a8565b61190357600080fd5b6001600160a01b0381166000818152600b6020908152604091829020805460ff1916600117905590519182527faf77f8960cf590e245ec8b6d41c193a5dcacad8986ae4eb57ac9e5be7b6af03191016114fd565b3360009081526005602052604090205460ff161561197457600080fd5b3360009081526005602090815260408083208054600160ff1991821681179092556006909352908320805490921617905560178054916119b383613c07565b90915550506040805160e0810182523380825260208083018a81528385018a9052606084018990526080840188905260a0840187905260c0840186905260009283526002909152929020815181546001600160a01b0319166001600160a01b0390911617815591519091906001820190611a2d9082613b47565b506040820151600282015560608201516003820190611a4c9082613b47565b5060808201516004820190611a619082613b47565b5060a08201516005820190611a769082613b47565b5060c08201516006820190611a8b9082613b47565b5050601380546001810182556000919091527f66de8ffda797e3de9c05e8fc57b3bf0ec28a930d40b0d285d93c06501cf6a0900180546001600160a01b031916339081179091556040519081527f478f5152d8fc568db3f8de9fb402fd9d98a1a7541ecfe434e59cf574fbfc5524915060200160405180910390a1505050505050565b600360205260009081526040902080546001820180546001600160a01b039092169291611b3a90613ac7565b80601f0160208091040260200160405190810160405280929190818152602001828054611b6690613ac7565b8015611bb35780601f10611b8857610100808354040283529160200191611bb3565b820191906000526020600020905b815481529060010190602001808311611b9657829003601f168201915b505050505090806002015490806003018054611bce90613ac7565b80601f0160208091040260200160405190810160405280929190818152602001828054611bfa90613ac7565b8015611c475780601f10611c1c57610100808354040283529160200191611c47565b820191906000526020600020905b815481529060010190602001808311611c2a57829003601f168201915b505050505090806004018054611c5c90613ac7565b80601f0160208091040260200160405190810160405280929190818152602001828054611c8890613ac7565b8015611cd55780601f10611caa57610100808354040283529160200191611cd5565b820191906000526020600020905b815481529060010190602001808311611cb857829003601f168201915b505050505090806005018054611cea90613ac7565b80601f0160208091040260200160405190810160405280929190818152602001828054611d1690613ac7565b8015611d635780601f10611d3857610100808354040283529160200191611d63565b820191906000526020600020905b815481529060010190602001808311611d4657829003601f168201915b505050505090806006018054611d7890613ac7565b80601f0160208091040260200160405190810160405280929190818152602001828054611da490613ac7565b8015611df15780601f10611dc657610100808354040283529160200191611df1565b820191906000526020600020905b815481529060010190602001808311611dd457829003601f168201915b505050505090806007018054611e0690613ac7565b80601f0160208091040260200160405190810160405280929190818152602001828054611e3290613ac7565b8015611e7f5780601f10611e5457610100808354040283529160200191611e7f565b820191906000526020600020905b815481529060010190602001808311611e6257829003601f168201915b5050505050905088565b6001600160a01b03811660009081526002602081905260408220908101546001820180546060949385938493849384939192916003810191600482019160058101916006909101908690611edc90613ac7565b80601f0160208091040260200160405190810160405280929190818152602001828054611f0890613ac7565b8015611f555780601f10611f2a57610100808354040283529160200191611f55565b820191906000526020600020905b815481529060010190602001808311611f3857829003601f168201915b50505050509550838054611f6890613ac7565b80601f0160208091040260200160405190810160405280929190818152602001828054611f9490613ac7565b8015611fe15780601f10611fb657610100808354040283529160200191611fe1565b820191906000526020600020905b815481529060010190602001808311611fc457829003601f168201915b50505050509350828054611ff490613ac7565b80601f016020809104026020016040519081016040528092919081815260200182805461202090613ac7565b801561206d5780601f106120425761010080835404028352916020019161206d565b820191906000526020600020905b81548152906001019060200180831161205057829003601f168201915b5050505050925081805461208090613ac7565b80601f01602080910402602001604051908101604052809291908181526020018280546120ac90613ac7565b80156120f95780601f106120ce576101008083540402835291602001916120f9565b820191906000526020600020905b8154815290600101906020018083116120dc57829003601f168201915b5050505050915080805461210c90613ac7565b80601f016020809104026020016040519081016040528092919081815260200182805461213890613ac7565b80156121855780601f1061215a57610100808354040283529160200191612185565b820191906000526020600020905b81548152906001019060200180831161216857829003601f168201915b5050505050905095509550955095509550955091939550919395565b6001600160a01b03811660009081526008602052604081205460ff168061120557506001600160a01b0382166000908152600a602052604090205460ff161561101357506001919050565b6121f5336128a8565b6121fe57600080fd5b6000918252600d602052604090912080546001600160a01b0319166001600160a01b03909216919091179055565b6001600160a01b03811660009081526005602052604081205460ff161561101357506001919050565b3360009081526005602052604090205460ff16801561228a5750336000818152600260205260409020546001600160a01b0316145b61229357600080fd5b3360009081526002602052604090206001016122af8682613b47565b503360009081526002602081905260409091209081018590556003016122d58482613b47565b503360009081526002602052604090206004016122f28382613b47565b5033600090815260026020526040902060050161230f8282613b47565b505050505050565b60008181526010602052604081205460ff161561101357506001919050565b6013818154811061234657600080fd5b6000918252602090912001546001600160a01b0316905081565b612369336128a8565b61237257600080fd5b6001600160a01b038116600081815260086020908152604091829020805460ff1916600117905590519182527f6a6455914f452787eb3985452aceedc1000fb545e394eb3b370e3d08958e0a5b91016114fd565b600081815260208190526040902060020180546060919061103890613ac7565b6123ef336130e2565b80156123ff57506123ff336121a1565b61240857600080fd5b6000908152600e60205260409020805460ff19166001179055565b6060601380548060200260200160405190810160405280929190818152602001828054801561143f576020028201919060005260206000209081546001600160a01b03168152600190910190602001808311611421575050505050905090565b600260205260009081526040902080546001820180546001600160a01b0390921692916124af90613ac7565b80601f01602080910402602001604051908101604052809291908181526020018280546124db90613ac7565b80156125285780601f106124fd57610100808354040283529160200191612528565b820191906000526020600020905b81548152906001019060200180831161250b57829003601f168201915b50505050509080600201549080600301805461254390613ac7565b80601f016020809104026020016040519081016040528092919081815260200182805461256f90613ac7565b80156125bc5780601f10612591576101008083540402835291602001916125bc565b820191906000526020600020905b81548152906001019060200180831161259f57829003601f168201915b5050505050908060040180546125d190613ac7565b80601f01602080910402602001604051908101604052809291908181526020018280546125fd90613ac7565b801561264a5780601f1061261f5761010080835404028352916020019161264a565b820191906000526020600020905b81548152906001019060200180831161262d57829003601f168201915b50505050509080600501805461265f90613ac7565b80601f016020809104026020016040519081016040528092919081815260200182805461268b90613ac7565b80156126d85780601f106126ad576101008083540402835291602001916126d8565b820191906000526020600020905b8154815290600101906020018083116126bb57829003601f168201915b5050505050908060060180546126ed90613ac7565b80601f016020809104026020016040519081016040528092919081815260200182805461271990613ac7565b80156127665780601f1061273b57610100808354040283529160200191612766565b820191906000526020600020905b81548152906001019060200180831161274957829003601f168201915b5050505050905087565b60016020819052600091825260409091208054918101805461279190613ac7565b80601f01602080910402602001604051908101604052809291908181526020018280546127bd90613ac7565b801561280a5780601f106127df5761010080835404028352916020019161280a565b820191906000526020600020905b8154815290600101906020018083116127ed57829003601f168201915b50505050509080600201549080600301805461282590613ac7565b80601f016020809104026020016040519081016040528092919081815260200182805461285190613ac7565b801561289e5780601f106128735761010080835404028352916020019161289e565b820191906000526020600020905b81548152906001019060200180831161288157829003601f168201915b5050505050905084565b6012546000906001600160a01b038084169116036128c857506001919050565b506000919050565b6000818152600460209081526040808320600201546001600160a01b039081168085526003845282852083516101008101909452805490921683526001820180546060968796879694959194939192908401919061292d90613ac7565b80601f016020809104026020016040519081016040528092919081815260200182805461295990613ac7565b80156129a65780601f1061297b576101008083540402835291602001916129a6565b820191906000526020600020905b81548152906001019060200180831161298957829003601f168201915b50505050508152602001600282015481526020016003820180546129c990613ac7565b80601f01602080910402602001604051908101604052809291908181526020018280546129f590613ac7565b8015612a425780601f10612a1757610100808354040283529160200191612a42565b820191906000526020600020905b815481529060010190602001808311612a2557829003601f168201915b50505050508152602001600482018054612a5b90613ac7565b80601f0160208091040260200160405190810160405280929190818152602001828054612a8790613ac7565b8015612ad45780601f10612aa957610100808354040283529160200191612ad4565b820191906000526020600020905b815481529060010190602001808311612ab757829003601f168201915b50505050508152602001600582018054612aed90613ac7565b80601f0160208091040260200160405190810160405280929190818152602001828054612b1990613ac7565b8015612b665780601f10612b3b57610100808354040283529160200191612b66565b820191906000526020600020905b815481529060010190602001808311612b4957829003601f168201915b50505050508152602001600682018054612b7f90613ac7565b80601f0160208091040260200160405190810160405280929190818152602001828054612bab90613ac7565b8015612bf85780601f10612bcd57610100808354040283529160200191612bf8565b820191906000526020600020905b815481529060010190602001808311612bdb57829003601f168201915b50505050508152602001600782018054612c1190613ac7565b80601f0160208091040260200160405190810160405280929190818152602001828054612c3d90613ac7565b8015612c8a5780601f10612c5f57610100808354040283529160200191612c8a565b820191906000526020600020905b815481529060010190602001808311612c6d57829003601f168201915b505050919092525050506020810151606082015160e090920151909891975095509350505050565b612cbb336128a8565b612cc457600080fd5b6001600160a01b038116600081815260096020908152604091829020805460ff1916600117905590519182527faf77f8960cf590e245ec8b6d41c193a5dcacad8986ae4eb57ac9e5be7b6af03191016114fd565b60006020819052908152604090208054600182015460028301805492939192612d4090613ac7565b80601f0160208091040260200160405190810160405280929190818152602001828054612d6c90613ac7565b8015612db95780601f10612d8e57610100808354040283529160200191612db9565b820191906000526020600020905b815481529060010190602001808311612d9c57829003601f168201915b505050505090806003018054612dce90613ac7565b80601f0160208091040260200160405190810160405280929190818152602001828054612dfa90613ac7565b8015612e475780601f10612e1c57610100808354040283529160200191612e47565b820191906000526020600020905b815481529060010190602001808311612e2a57829003601f168201915b505050505090806004015490806005015490806006015490806007018054612e6e90613ac7565b80601f0160208091040260200160405190810160405280929190818152602001828054612e9a90613ac7565b8015612ee75780601f10612ebc57610100808354040283529160200191612ee7565b820191906000526020600020905b815481529060010190602001808311612eca57829003601f168201915b505050505090806008018054612efc90613ac7565b80601f0160208091040260200160405190810160405280929190818152602001828054612f2890613ac7565b8015612f755780601f10612f4a57610100808354040283529160200191612f75565b820191906000526020600020905b815481529060010190602001808311612f5857829003601f168201915b5050505050905089565b612f88336130e2565b8015612f985750612f98336121a1565b612fa157600080fd5b60158054906000612fb183613c07565b9091555050604080516101208101825260155480825260208083018c81528385018c8152606085018c9052608085018b905260a085018a905260c0850189905260e08501889052610100850187905260009384529183905293909120825181559251600184015551909190600282019061302b9082613b47565b50606082015160038201906130409082613b47565b506080820151600482015560a0820151600582015560c0820151600682015560e082015160078201906130739082613b47565b5061010082015160088201906130899082613b47565b5050601580546000908152600d602052604080822080546001600160a01b03191633179055915491519192507f1683494da6843132b363282b9c61279cdc5f214c099a31557fc4d0eaad2f4d2991a25050505050505050565b6001600160a01b03811660009081526006602052604081205460ff161561101357506001919050565b6014818154811061234657600080fd5b613124336110bd565b80156131345750613134336121a1565b61313d57600080fd5b6019805490600061314d83613c07565b909155505060408051608081018252601980548083526001600160a01b03868116602080860182815233878901908152606088018a81526000968752600484528987209851895591516001808a0180549288166001600160a01b0319938416179055915160028a018054919097169116179094555160039096019590955583548352600e8552858320805460ff1990811690915593548352600f85529185902080549093161790915591519182527fc67eb70629da758128cec22f7e36ad0676066ad4df9b66e8ba58a30c1ab4075b910160405180910390a15050565b613233336128a8565b61323c57600080fd5b6000908152600c60205260409020805460ff19166001179055565b60006020828403121561326957600080fd5b5035919050565b634e487b7160e01b600052604160045260246000fd5b600082601f83011261329757600080fd5b813567ffffffffffffffff808211156132b2576132b2613270565b604051601f8301601f19908116603f011681019082821181831017156132da576132da613270565b816040528381528660208588010111156132f357600080fd5b836020870160208301376000602085830101528094505050505092915050565b60008060008060008060c0878903121561332c57600080fd5b863567ffffffffffffffff8082111561334457600080fd5b6133508a838b01613286565b975060208901359650604089013591508082111561336d57600080fd5b6133798a838b01613286565b9550606089013591508082111561338f57600080fd5b61339b8a838b01613286565b945060808901359150808211156133b157600080fd5b6133bd8a838b01613286565b935060a08901359150808211156133d357600080fd5b506133e089828a01613286565b9150509295509295509295565b6000815180845260005b81811015613413576020818501810151868301820152016133f7565b506000602082860101526020601f19601f83011685010191505092915050565b60208152600061344660208301846133ed565b9392505050565b6001600160a01b038116811461346257600080fd5b50565b60006020828403121561347757600080fd5b81356134468161344d565b600080600080600080600060e0888a03121561349d57600080fd5b873567ffffffffffffffff808211156134b557600080fd5b6134c18b838c01613286565b985060208a0135975060408a01359150808211156134de57600080fd5b6134ea8b838c01613286565b965060608a013591508082111561350057600080fd5b61350c8b838c01613286565b955060808a013591508082111561352257600080fd5b61352e8b838c01613286565b945060a08a013591508082111561354457600080fd5b6135508b838c01613286565b935060c08a013591508082111561356657600080fd5b506135738a828b01613286565b91505092959891949750929550565b6020808252825182820181905260009190848201906040850190845b818110156135c35783516001600160a01b03168352928401929184019160010161359e565b50909695505050505050565b600080604083850312156135e257600080fd5b82356135ed8161344d565b946020939093013593505050565b60e08152600061360e60e083018a6133ed565b8281036020840152613620818a6133ed565b9050828103604084015261363481896133ed565b9050828103606084015261364881886133ed565b9050828103608084015261365c81876133ed565b90508460a084015282810360c084015261367681856133ed565b9a9950505050505050505050565b6001600160a01b0389168152610100602082018190526000906136a98382018b6133ed565b905088604084015282810360608401526136c381896133ed565b905082810360808401526136d781886133ed565b905082810360a08401526136eb81876133ed565b905082810360c08401526136ff81866133ed565b905082810360e084015261371381856133ed565b9b9a5050505050505050505050565b60c08152600061373560c08301896133ed565b876020840152828103604084015261374d81886133ed565b9050828103606084015261376181876133ed565b9050828103608084015261377581866133ed565b905082810360a084015261378981856133ed565b9998505050505050505050565b600080604083850312156137a957600080fd5b8235915060208301356137bb8161344d565b809150509250929050565b600080600080600060a086880312156137de57600080fd5b853567ffffffffffffffff808211156137f657600080fd5b61380289838a01613286565b965060208801359550604088013591508082111561381f57600080fd5b61382b89838a01613286565b9450606088013591508082111561384157600080fd5b61384d89838a01613286565b9350608088013591508082111561386357600080fd5b5061387088828901613286565b9150509295509295909350565b6001600160a01b038816815260e0602082018190526000906138a1908301896133ed565b87604084015282810360608401526138b981886133ed565b905082810360808401526138cd81876133ed565b905082810360a08401526138e181866133ed565b905082810360c084015261367681856133ed565b84815260806020820152600061390e60808301866133ed565b846040840152828103606084015261392681856133ed565b979650505050505050565b60608152600061394460608301866133ed565b828103602084015261395681866133ed565b9050828103604084015261396a81856133ed565b9695505050505050565b60006101208b83528a60208401528060408401526139948184018b6133ed565b905082810360608401526139a8818a6133ed565b90508760808401528660a08401528560c084015282810360e08401526139ce81866133ed565b90508281036101008401526139e381856133ed565b9c9b505050505050505050505050565b600080600080600080600080610100898b031215613a1057600080fd5b88359750602089013567ffffffffffffffff80821115613a2f57600080fd5b613a3b8c838d01613286565b985060408b0135915080821115613a5157600080fd5b613a5d8c838d01613286565b975060608b0135965060808b0135955060a08b0135945060c08b0135915080821115613a8857600080fd5b613a948c838d01613286565b935060e08b0135915080821115613aaa57600080fd5b50613ab78b828c01613286565b9150509295985092959890939650565b600181811c90821680613adb57607f821691505b602082108103613afb57634e487b7160e01b600052602260045260246000fd5b50919050565b601f82111561149657600081815260208120601f850160051c81016020861015613b285750805b601f850160051c820191505b8181101561230f57828155600101613b34565b815167ffffffffffffffff811115613b6157613b61613270565b613b7581613b6f8454613ac7565b84613b01565b602080601f831160018114613baa5760008415613b925750858301515b600019600386901b1c1916600185901b17855561230f565b600085815260208120601f198616915b82811015613bd957888601518255948401946001909101908401613bba565b5085821015613bf75787850151600019600388901b60f8161c191681555b5050505050600190811b01905550565b600060018201613c2757634e487b7160e01b600052601160045260246000fd5b506001019056fea2646970667358221220fc20ca8757f8ccb3384443514282ae358e3c2637b46c48c35c428bdeac8b912c64736f6c63430008150033",
  "immutableReferences": {},
  "source": "pragma solidity >= 0.5.0;\r\n\r\ncontract Land {\r\n    struct Landreg {\r\n        uint id;\r\n        uint area;\r\n        string city;\r\n        string state;\r\n        uint landPrice;\r\n        uint propertyPID;\r\n        uint physicalSurveyNumber;\r\n        string ipfsHash;\r\n        string document;\r\n    }\r\n\r\n    struct Buyer{\r\n        address id;\r\n        string name;\r\n        uint age;\r\n        string city;\r\n        string aadharNumber;\r\n        string panNumber;\r\n        string document;\r\n        string email;\r\n    }\r\n\r\n    struct Seller{\r\n        address id;\r\n        string name;\r\n        uint age;\r\n        string aadharNumber;\r\n        string panNumber;\r\n        string landsOwned;\r\n        string document;\r\n    }\r\n\r\n    struct LandInspector {\r\n        uint id;\r\n        string name;\r\n        uint age;\r\n        string designation;\r\n    }\r\n\r\n    struct LandRequest{\r\n        uint reqId;\r\n        address sellerId;\r\n        address buyerId;\r\n        uint landId;\r\n    }\r\n\r\n    mapping(uint => Landreg) public lands;\r\n    mapping(uint => LandInspector) public InspectorMapping;\r\n    mapping(address => Seller) public SellerMapping;\r\n    mapping(address => Buyer) public BuyerMapping;\r\n    mapping(uint => LandRequest) public RequestsMapping;\r\n\r\n    mapping(address => bool) public RegisteredAddressMapping;\r\n    mapping(address => bool) public RegisteredSellerMapping;\r\n    mapping(address => bool) public RegisteredBuyerMapping;\r\n    mapping(address => bool) public SellerVerification;\r\n    mapping(address => bool) public SellerRejection;\r\n    mapping(address => bool) public BuyerVerification;\r\n    mapping(address => bool) public BuyerRejection;\r\n    mapping(uint => bool) public LandVerification;\r\n    mapping(uint => address) public LandOwner;\r\n    mapping(uint => bool) public RequestStatus;\r\n    mapping(uint => bool) public RequestedLands;\r\n    mapping(uint => bool) public PaymentReceived;\r\n    mapping(uint => bool) public RequestRejected;\r\n\r\n\r\n    address public Land_Inspector;\r\n    address[] public sellers;\r\n    address[] public buyers;\r\n\r\n    uint public landsCount;\r\n    uint public inspectorsCount;\r\n    uint public sellersCount;\r\n    uint public buyersCount;\r\n    uint public requestsCount;\r\n\r\n    event Registration(address _registrationId);\r\n    event AddingLand(uint indexed _landId);\r\n    event Landrequested(address _sellerId);\r\n    event requestApproved(address _buyerId);\r\n    event Verified(address _id);\r\n    event Rejected(address _id);\r\n\r\n    constructor() public {\r\n        // -------------------------------------------------------\r\n        // FIXED: This is now a valid Ethereum Address (Account 0)\r\n        // -------------------------------------------------------\r\n        Land_Inspector = 0xb985CE8ae1A06a6001F58D55c0B3d961b5e4Df2E; \r\n        \r\n        addLandInspector(\"Inspector 1\", 45, \"Tehsil Manager\");\r\n    }\r\n\r\n    function addLandInspector(string memory _name, uint _age, string memory _designation) private {\r\n        inspectorsCount++;\r\n        InspectorMapping[inspectorsCount] = LandInspector(inspectorsCount, _name, _age, _designation);\r\n    }\r\n\r\n    function getLandsCount() public view returns (uint) {\r\n        return landsCount;\r\n    }\r\n\r\n    function getBuyersCount() public view returns (uint) {\r\n        return buyersCount;\r\n    }\r\n\r\n    function getSellersCount() public view returns (uint) {\r\n        return sellersCount;\r\n    }\r\n\r\n    function getRequestsCount() public view returns (uint) {\r\n        return requestsCount;\r\n    }\r\n\r\n    function getArea(uint i) public view returns (uint) {\r\n        return lands[i].area;\r\n    }\r\n\r\n    function getCity(uint i) public view returns (string memory) {\r\n        return lands[i].city;\r\n    }\r\n\r\n    function getState(uint i) public view returns (string memory) {\r\n        return lands[i].state;\r\n    }\r\n\r\n    function getPrice(uint i) public view returns (uint) {\r\n        return lands[i].landPrice;\r\n    }\r\n\r\n    function getPID(uint i) public view returns (uint) {\r\n        return lands[i].propertyPID;\r\n    }\r\n\r\n    function getSurveyNumber(uint i) public view returns (uint) {\r\n        return lands[i].physicalSurveyNumber;\r\n    }\r\n\r\n    function getImage(uint i) public view returns (string memory) {\r\n        return lands[i].ipfsHash;\r\n    }\r\n\r\n    function getDocument(uint i) public view returns (string memory) {\r\n        return lands[i].document;\r\n    }\r\n\r\n    function getLandOwner(uint id) public view returns (address) {\r\n        return LandOwner[id];\r\n    }\r\n\r\n    function verifySeller(address _sellerId) public{\r\n        require(isLandInspector(msg.sender));\r\n        SellerVerification[_sellerId] = true;\r\n        emit Verified(_sellerId);\r\n    }\r\n\r\n    function rejectSeller(address _sellerId) public{\r\n        require(isLandInspector(msg.sender));\r\n        SellerRejection[_sellerId] = true;\r\n        emit Rejected(_sellerId);\r\n    }\r\n\r\n    function verifyBuyer(address _buyerId) public{\r\n        require(isLandInspector(msg.sender));\r\n        BuyerVerification[_buyerId] = true;\r\n        emit Verified(_buyerId);\r\n    }\r\n\r\n    function rejectBuyer(address _buyerId) public{\r\n        require(isLandInspector(msg.sender));\r\n        BuyerRejection[_buyerId] = true;\r\n        emit Rejected(_buyerId);\r\n    }\r\n\r\n    function verifyLand(uint _landId) public{\r\n        require(isLandInspector(msg.sender));\r\n        LandVerification[_landId] = true;\r\n    }\r\n\r\n    function isLandVerified(uint _id) public view returns (bool) {\r\n        if(LandVerification[_id]){\r\n            return true;\r\n        }\r\n    }\r\n\r\n    function isVerified(address _id) public view returns (bool) {\r\n        if(SellerVerification[_id] || BuyerVerification[_id]){\r\n            return true;\r\n        }\r\n    }\r\n\r\n    function isRejected(address _id) public view returns (bool) {\r\n        if(SellerRejection[_id] || BuyerRejection[_id]){\r\n            return true;\r\n        }\r\n    }\r\n\r\n    function isSeller(address _id) public view returns (bool) {\r\n        if(RegisteredSellerMapping[_id]){\r\n            return true;\r\n        }\r\n    }\r\n\r\n    function isLandInspector(address _id) public view returns (bool) {\r\n        if(Land_Inspector == _id){\r\n            return true;\r\n        }else{\r\n            return false;\r\n        }\r\n    }\r\n\r\n    function isBuyer(address _id) public view returns (bool) {\r\n        if(RegisteredBuyerMapping[_id]){\r\n            return true;\r\n        }\r\n    }\r\n    function isRegistered(address _id) public view returns (bool) {\r\n        if(RegisteredAddressMapping[_id]){\r\n            return true;\r\n        }\r\n    }\r\n\r\n    function addLand(uint _area, string memory _city,string memory _state, uint landPrice, uint _propertyPID,uint _surveyNum,string memory _ipfsHash, string memory _document) public {\r\n        require((isSeller(msg.sender)) && (isVerified(msg.sender)));\r\n        landsCount++;\r\n        lands[landsCount] = Landreg(landsCount, _area, _city, _state, landPrice,_propertyPID, _surveyNum, _ipfsHash, _document);\r\n        LandOwner[landsCount] = msg.sender;\r\n        emit AddingLand(landsCount);\r\n    }\r\n\r\n    function registerSeller(string memory _name, uint _age, string memory _aadharNumber, string memory _panNumber, string memory _landsOwned, string memory _document) public {\r\n        require(!RegisteredAddressMapping[msg.sender]);\r\n        RegisteredAddressMapping[msg.sender] = true;\r\n        RegisteredSellerMapping[msg.sender] = true ;\r\n        sellersCount++;\r\n        SellerMapping[msg.sender] = Seller(msg.sender, _name, _age, _aadharNumber,_panNumber, _landsOwned, _document);\r\n        sellers.push(msg.sender);\r\n        emit Registration(msg.sender);\r\n    }\r\n\r\n    function updateSeller(string memory _name, uint _age, string memory _aadharNumber, string memory _panNumber, string memory _landsOwned) public {\r\n        require(RegisteredAddressMapping[msg.sender] && (SellerMapping[msg.sender].id == msg.sender));\r\n        SellerMapping[msg.sender].name = _name;\r\n        SellerMapping[msg.sender].age = _age;\r\n        SellerMapping[msg.sender].aadharNumber = _aadharNumber;\r\n        SellerMapping[msg.sender].panNumber = _panNumber;\r\n        SellerMapping[msg.sender].landsOwned = _landsOwned;\r\n    }\r\n\r\n    function getSeller() public view returns( address [] memory ){\r\n        return(sellers);\r\n    }\r\n\r\n    function getSellerDetails(address i) public view returns (string memory, uint, string memory, string memory, string memory, string memory) {\r\n        return (SellerMapping[i].name, SellerMapping[i].age, SellerMapping[i].aadharNumber, SellerMapping[i].panNumber, SellerMapping[i].landsOwned, SellerMapping[i].document);\r\n    }\r\n\r\n    function registerBuyer(string memory _name, uint _age, string memory _city, string memory _aadharNumber, string memory _panNumber, string memory _document, string memory _email) public {\r\n        require(!RegisteredAddressMapping[msg.sender]);\r\n        RegisteredAddressMapping[msg.sender] = true;\r\n        RegisteredBuyerMapping[msg.sender] = true ;\r\n        buyersCount++;\r\n        BuyerMapping[msg.sender] = Buyer(msg.sender, _name, _age, _city, _aadharNumber, _panNumber, _document, _email);\r\n        buyers.push(msg.sender);\r\n        emit Registration(msg.sender);\r\n    }\r\n\r\n    function updateBuyer(string memory _name,uint _age, string memory _city,string memory _aadharNumber, string memory _email, string memory _panNumber) public {\r\n        require(RegisteredAddressMapping[msg.sender] && (BuyerMapping[msg.sender].id == msg.sender));\r\n        BuyerMapping[msg.sender].name = _name;\r\n        BuyerMapping[msg.sender].age = _age;\r\n        BuyerMapping[msg.sender].city = _city;\r\n        BuyerMapping[msg.sender].aadharNumber = _aadharNumber;\r\n        BuyerMapping[msg.sender].email = _email;\r\n        BuyerMapping[msg.sender].panNumber = _panNumber;\r\n    }\r\n\r\n    function getBuyer() public view returns( address [] memory ){\r\n        return(buyers);\r\n    }\r\n\r\n    function getBuyerDetails(address i) public view returns ( string memory,string memory, string memory, string memory, string memory, uint, string memory) {\r\n        return (BuyerMapping[i].name,BuyerMapping[i].city , BuyerMapping[i].panNumber, BuyerMapping[i].document, BuyerMapping[i].email, BuyerMapping[i].age, BuyerMapping[i].aadharNumber);\r\n    }\r\n\r\n    function requestLand(address _sellerId, uint _landId) public{\r\n        require(isBuyer(msg.sender) && isVerified(msg.sender));\r\n        requestsCount++;\r\n        RequestsMapping[requestsCount] = LandRequest(requestsCount, _sellerId, msg.sender, _landId);\r\n        RequestStatus[requestsCount] = false;\r\n        RequestedLands[requestsCount] = true;\r\n        emit Landrequested(_sellerId);\r\n    }\r\n\r\n    function getRequestDetails (uint i) public view returns (address, address, uint, bool) {\r\n        return(RequestsMapping[i].sellerId, RequestsMapping[i].buyerId, RequestsMapping[i].landId, RequestStatus[i]);\r\n    }\r\n\r\n    function isRequested(uint _id) public view returns (bool) {\r\n        if(RequestedLands[_id]){\r\n            return true;\r\n        }\r\n    }\r\n\r\n    function isApproved(uint _id) public view returns (bool) {\r\n        if(RequestStatus[_id]){\r\n            return true;\r\n        }\r\n    }\r\n\r\n    function approveRequest(uint _reqId) public {\r\n        require((isSeller(msg.sender)) && (isVerified(msg.sender)));\r\n        RequestStatus[_reqId] = true;\r\n    }\r\n\r\n    function LandOwnershipTransfer(uint _landId, address _newOwner) public{\r\n        require(isLandInspector(msg.sender));\r\n        LandOwner[_landId] = _newOwner;\r\n    }\r\n\r\n    function isPaid(uint _landId) public view returns (bool) {\r\n        if(PaymentReceived[_landId]){\r\n            return true;\r\n        }\r\n    }\r\n\r\n    function payment(address payable _receiver, uint _landId) public payable {\r\n        PaymentReceived[_landId] = true;\r\n        _receiver.transfer(msg.value);\r\n    }\r\n\r\n    function getBuyerInfoForRequest(uint _reqId) \r\n    public \r\n    view \r\n    returns (string memory name, string memory city, string memory email) \r\n{\r\n    address buyerAddr = RequestsMapping[_reqId].buyerId;\r\n    Buyer memory b = BuyerMapping[buyerAddr];\r\n    return (b.name, b.city, b.email);\r\n}\r\n\r\n    function rejectRequest(uint _reqId) public {\r\n        require(isSeller(msg.sender) && isVerified(msg.sender));\r\n        require(!RequestStatus[_reqId], \"Request already approved\");\r\n        RequestRejected[_reqId] = true;\r\n    }\r\n\r\n\r\n}",
  "sourcePath": "E:\\Land_registery\\contracts\\Land.sol",
  "compiler": {
    "name": "solc",
    "version": "0.8.21+commit.d9974bed.Emscripten.clang"
  },
  "schemaVersion": "3.4.16",
  "updatedAt": "2025-11-25T12:22:50.402Z",
  "networkType": "ethereum",
  "devdoc": {
    "kind": "dev",
    "methods": {},
    "version": 1
  },
  "userdoc": {
    "kind": "user",
    "methods": {},
    "version": 1
  }
}