{
  "contractName": "Land",
  "abi": [
    {
      "inputs": [],
      "stateMutability": "nonpayable",
      "type": "constructor"
    },
    {
      "anonymous": false,
      "inputs": [
        {
          "indexed": true,
          "internalType": "uint256",
          "name": "_landId",
          "type": "uint256"
        }
      ],
      "name": "AddingLand",
      "type": "event"
    },
    {
      "anonymous": false,
      "inputs": [
        {
          "indexed": false,
          "internalType": "address",
          "name": "_sellerId",
          "type": "address"
        }
      ],
      "name": "Landrequested",
      "type": "event"
    },
    {
      "anonymous": false,
      "inputs": [
        {
          "indexed": false,
          "internalType": "address",
          "name": "_registrationId",
          "type": "address"
        }
      ],
      "name": "Registration",
      "type": "event"
    },
    {
      "anonymous": false,
      "inputs": [
        {
          "indexed": false,
          "internalType": "address",
          "name": "_id",
          "type": "address"
        }
      ],
      "name": "Rejected",
      "type": "event"
    },
    {
      "anonymous": false,
      "inputs": [
        {
          "indexed": false,
          "internalType": "address",
          "name": "_id",
          "type": "address"
        }
      ],
      "name": "Verified",
      "type": "event"
    },
    {
      "anonymous": false,
      "inputs": [
        {
          "indexed": false,
          "internalType": "address",
          "name": "_buyerId",
          "type": "address"
        }
      ],
      "name": "requestApproved",
      "type": "event"
    },
    {
      "inputs": [
        {
          "internalType": "address",
          "name": "",
          "type": "address"
        }
      ],
      "name": "BuyerMapping",
      "outputs": [
        {
          "internalType": "address",
          "name": "id",
          "type": "address"
        },
        {
          "internalType": "string",
          "name": "name",
          "type": "string"
        },
        {
          "internalType": "uint256",
          "name": "age",
          "type": "uint256"
        },
        {
          "internalType": "string",
          "name": "city",
          "type": "string"
        },
        {
          "internalType": "string",
          "name": "aadharNumber",
          "type": "string"
        },
        {
          "internalType": "string",
          "name": "panNumber",
          "type": "string"
        },
        {
          "internalType": "string",
          "name": "document",
          "type": "string"
        },
        {
          "internalType": "string",
          "name": "email",
          "type": "string"
        }
      ],
      "stateMutability": "view",
      "type": "function"
    },
    {
      "inputs": [
        {
          "internalType": "address",
          "name": "",
          "type": "address"
        }
      ],
      "name": "BuyerRejection",
      "outputs": [
        {
          "internalType": "bool",
          "name": "",
          "type": "bool"
        }
      ],
      "stateMutability": "view",
      "type": "function"
    },
    {
      "inputs": [
        {
          "internalType": "address",
          "name": "",
          "type": "address"
        }
      ],
      "name": "BuyerVerification",
      "outputs": [
        {
          "internalType": "bool",
          "name": "",
          "type": "bool"
        }
      ],
      "stateMutability": "view",
      "type": "function"
    },
    {
      "inputs": [
        {
          "internalType": "uint256",
          "name": "",
          "type": "uint256"
        }
      ],
      "name": "InspectorMapping",
      "outputs": [
        {
          "internalType": "uint256",
          "name": "id",
          "type": "uint256"
        },
        {
          "internalType": "string",
          "name": "name",
          "type": "string"
        },
        {
          "internalType": "uint256",
          "name": "age",
          "type": "uint256"
        },
        {
          "internalType": "string",
          "name": "designation",
          "type": "string"
        }
      ],
      "stateMutability": "view",
      "type": "function"
    },
    {
      "inputs": [
        {
          "internalType": "uint256",
          "name": "",
          "type": "uint256"
        }
      ],
      "name": "LandOwner",
      "outputs": [
        {
          "internalType": "address",
          "name": "",
          "type": "address"
        }
      ],
      "stateMutability": "view",
      "type": "function"
    },
    {
      "inputs": [
        {
          "internalType": "uint256",
          "name": "",
          "type": "uint256"
        }
      ],
      "name": "LandVerification",
      "outputs": [
        {
          "internalType": "bool",
          "name": "",
          "type": "bool"
        }
      ],
      "stateMutability": "view",
      "type": "function"
    },
    {
      "inputs": [],
      "name": "Land_Inspector",
      "outputs": [
        {
          "internalType": "address",
          "name": "",
          "type": "address"
        }
      ],
      "stateMutability": "view",
      "type": "function"
    },
    {
      "inputs": [
        {
          "internalType": "uint256",
          "name": "",
          "type": "uint256"
        }
      ],
      "name": "PaymentReceived",
      "outputs": [
        {
          "internalType": "bool",
          "name": "",
          "type": "bool"
        }
      ],
      "stateMutability": "view",
      "type": "function"
    },
    {
      "inputs": [
        {
          "internalType": "address",
          "name": "",
          "type": "address"
        }
      ],
      "name": "RegisteredAddressMapping",
      "outputs": [
        {
          "internalType": "bool",
          "name": "",
          "type": "bool"
        }
      ],
      "stateMutability": "view",
      "type": "function"
    },
    {
      "inputs": [
        {
          "internalType": "address",
          "name": "",
          "type": "address"
        }
      ],
      "name": "RegisteredBuyerMapping",
      "outputs": [
        {
          "internalType": "bool",
          "name": "",
          "type": "bool"
        }
      ],
      "stateMutability": "view",
      "type": "function"
    },
    {
      "inputs": [
        {
          "internalType": "address",
          "name": "",
          "type": "address"
        }
      ],
      "name": "RegisteredSellerMapping",
      "outputs": [
        {
          "internalType": "bool",
          "name": "",
          "type": "bool"
        }
      ],
      "stateMutability": "view",
      "type": "function"
    },
    {
      "inputs": [
        {
          "internalType": "uint256",
          "name": "",
          "type": "uint256"
        }
      ],
      "name": "RequestStatus",
      "outputs": [
        {
          "internalType": "bool",
          "name": "",
          "type": "bool"
        }
      ],
      "stateMutability": "view",
      "type": "function"
    },
    {
      "inputs": [
        {
          "internalType": "uint256",
          "name": "",
          "type": "uint256"
        }
      ],
      "name": "RequestedLands",
      "outputs": [
        {
          "internalType": "bool",
          "name": "",
          "type": "bool"
        }
      ],
      "stateMutability": "view",
      "type": "function"
    },
    {
      "inputs": [
        {
          "internalType": "uint256",
          "name": "",
          "type": "uint256"
        }
      ],
      "name": "RequestsMapping",
      "outputs": [
        {
          "internalType": "uint256",
          "name": "reqId",
          "type": "uint256"
        },
        {
          "internalType": "address",
          "name": "sellerId",
          "type": "address"
        },
        {
          "internalType": "address",
          "name": "buyerId",
          "type": "address"
        },
        {
          "internalType": "uint256",
          "name": "landId",
          "type": "uint256"
        }
      ],
      "stateMutability": "view",
      "type": "function"
    },
    {
      "inputs": [
        {
          "internalType": "address",
          "name": "",
          "type": "address"
        }
      ],
      "name": "SellerMapping",
      "outputs": [
        {
          "internalType": "address",
          "name": "id",
          "type": "address"
        },
        {
          "internalType": "string",
          "name": "name",
          "type": "string"
        },
        {
          "internalType": "uint256",
          "name": "age",
          "type": "uint256"
        },
        {
          "internalType": "string",
          "name": "aadharNumber",
          "type": "string"
        },
        {
          "internalType": "string",
          "name": "panNumber",
          "type": "string"
        },
        {
          "internalType": "string",
          "name": "landsOwned",
          "type": "string"
        },
        {
          "internalType": "string",
          "name": "document",
          "type": "string"
        }
      ],
      "stateMutability": "view",
      "type": "function"
    },
    {
      "inputs": [
        {
          "internalType": "address",
          "name": "",
          "type": "address"
        }
      ],
      "name": "SellerRejection",
      "outputs": [
        {
          "internalType": "bool",
          "name": "",
          "type": "bool"
        }
      ],
      "stateMutability": "view",
      "type": "function"
    },
    {
      "inputs": [
        {
          "internalType": "address",
          "name": "",
          "type": "address"
        }
      ],
      "name": "SellerVerification",
      "outputs": [
        {
          "internalType": "bool",
          "name": "",
          "type": "bool"
        }
      ],
      "stateMutability": "view",
      "type": "function"
    },
    {
      "inputs": [
        {
          "internalType": "uint256",
          "name": "",
          "type": "uint256"
        }
      ],
      "name": "buyers",
      "outputs": [
        {
          "internalType": "address",
          "name": "",
          "type": "address"
        }
      ],
      "stateMutability": "view",
      "type": "function"
    },
    {
      "inputs": [],
      "name": "buyersCount",
      "outputs": [
        {
          "internalType": "uint256",
          "name": "",
          "type": "uint256"
        }
      ],
      "stateMutability": "view",
      "type": "function"
    },
    {
      "inputs": [],
      "name": "inspectorsCount",
      "outputs": [
        {
          "internalType": "uint256",
          "name": "",
          "type": "uint256"
        }
      ],
      "stateMutability": "view",
      "type": "function"
    },
    {
      "inputs": [
        {
          "internalType": "uint256",
          "name": "",
          "type": "uint256"
        }
      ],
      "name": "lands",
      "outputs": [
        {
          "internalType": "uint256",
          "name": "id",
          "type": "uint256"
        },
        {
          "internalType": "uint256",
          "name": "area",
          "type": "uint256"
        },
        {
          "internalType": "string",
          "name": "city",
          "type": "string"
        },
        {
          "internalType": "string",
          "name": "state",
          "type": "string"
        },
        {
          "internalType": "uint256",
          "name": "landPrice",
          "type": "uint256"
        },
        {
          "internalType": "uint256",
          "name": "propertyPID",
          "type": "uint256"
        },
        {
          "internalType": "uint256",
          "name": "physicalSurveyNumber",
          "type": "uint256"
        },
        {
          "internalType": "string",
          "name": "ipfsHash",
          "type": "string"
        },
        {
          "internalType": "string",
          "name": "document",
          "type": "string"
        }
      ],
      "stateMutability": "view",
      "type": "function"
    },
    {
      "inputs": [],
      "name": "landsCount",
      "outputs": [
        {
          "internalType": "uint256",
          "name": "",
          "type": "uint256"
        }
      ],
      "stateMutability": "view",
      "type": "function"
    },
    {
      "inputs": [],
      "name": "requestsCount",
      "outputs": [
        {
          "internalType": "uint256",
          "name": "",
          "type": "uint256"
        }
      ],
      "stateMutability": "view",
      "type": "function"
    },
    {
      "inputs": [
        {
          "internalType": "uint256",
          "name": "",
          "type": "uint256"
        }
      ],
      "name": "sellers",
      "outputs": [
        {
          "internalType": "address",
          "name": "",
          "type": "address"
        }
      ],
      "stateMutability": "view",
      "type": "function"
    },
    {
      "inputs": [],
      "name": "sellersCount",
      "outputs": [
        {
          "internalType": "uint256",
          "name": "",
          "type": "uint256"
        }
      ],
      "stateMutability": "view",
      "type": "function"
    },
    {
      "inputs": [],
      "name": "getLandsCount",
      "outputs": [
        {
          "internalType": "uint256",
          "name": "",
          "type": "uint256"
        }
      ],
      "stateMutability": "view",
      "type": "function"
    },
    {
      "inputs": [],
      "name": "getBuyersCount",
      "outputs": [
        {
          "internalType": "uint256",
          "name": "",
          "type": "uint256"
        }
      ],
      "stateMutability": "view",
      "type": "function"
    },
    {
      "inputs": [],
      "name": "getSellersCount",
      "outputs": [
        {
          "internalType": "uint256",
          "name": "",
          "type": "uint256"
        }
      ],
      "stateMutability": "view",
      "type": "function"
    },
    {
      "inputs": [],
      "name": "getRequestsCount",
      "outputs": [
        {
          "internalType": "uint256",
          "name": "",
          "type": "uint256"
        }
      ],
      "stateMutability": "view",
      "type": "function"
    },
    {
      "inputs": [
        {
          "internalType": "uint256",
          "name": "i",
          "type": "uint256"
        }
      ],
      "name": "getArea",
      "outputs": [
        {
          "internalType": "uint256",
          "name": "",
          "type": "uint256"
        }
      ],
      "stateMutability": "view",
      "type": "function"
    },
    {
      "inputs": [
        {
          "internalType": "uint256",
          "name": "i",
          "type": "uint256"
        }
      ],
      "name": "getCity",
      "outputs": [
        {
          "internalType": "string",
          "name": "",
          "type": "string"
        }
      ],
      "stateMutability": "view",
      "type": "function"
    },
    {
      "inputs": [
        {
          "internalType": "uint256",
          "name": "i",
          "type": "uint256"
        }
      ],
      "name": "getState",
      "outputs": [
        {
          "internalType": "string",
          "name": "",
          "type": "string"
        }
      ],
      "stateMutability": "view",
      "type": "function"
    },
    {
      "inputs": [
        {
          "internalType": "uint256",
          "name": "i",
          "type": "uint256"
        }
      ],
      "name": "getPrice",
      "outputs": [
        {
          "internalType": "uint256",
          "name": "",
          "type": "uint256"
        }
      ],
      "stateMutability": "view",
      "type": "function"
    },
    {
      "inputs": [
        {
          "internalType": "uint256",
          "name": "i",
          "type": "uint256"
        }
      ],
      "name": "getPID",
      "outputs": [
        {
          "internalType": "uint256",
          "name": "",
          "type": "uint256"
        }
      ],
      "stateMutability": "view",
      "type": "function"
    },
    {
      "inputs": [
        {
          "internalType": "uint256",
          "name": "i",
          "type": "uint256"
        }
      ],
      "name": "getSurveyNumber",
      "outputs": [
        {
          "internalType": "uint256",
          "name": "",
          "type": "uint256"
        }
      ],
      "stateMutability": "view",
      "type": "function"
    },
    {
      "inputs": [
        {
          "internalType": "uint256",
          "name": "i",
          "type": "uint256"
        }
      ],
      "name": "getImage",
      "outputs": [
        {
          "internalType": "string",
          "name": "",
          "type": "string"
        }
      ],
      "stateMutability": "view",
      "type": "function"
    },
    {
      "inputs": [
        {
          "internalType": "uint256",
          "name": "i",
          "type": "uint256"
        }
      ],
      "name": "getDocument",
      "outputs": [
        {
          "internalType": "string",
          "name": "",
          "type": "string"
        }
      ],
      "stateMutability": "view",
      "type": "function"
    },
    {
      "inputs": [
        {
          "internalType": "uint256",
          "name": "id",
          "type": "uint256"
        }
      ],
      "name": "getLandOwner",
      "outputs": [
        {
          "internalType": "address",
          "name": "",
          "type": "address"
        }
      ],
      "stateMutability": "view",
      "type": "function"
    },
    {
      "inputs": [
        {
          "internalType": "address",
          "name": "_sellerId",
          "type": "address"
        }
      ],
      "name": "verifySeller",
      "outputs": [],
      "stateMutability": "nonpayable",
      "type": "function"
    },
    {
      "inputs": [
        {
          "internalType": "address",
          "name": "_sellerId",
          "type": "address"
        }
      ],
      "name": "rejectSeller",
      "outputs": [],
      "stateMutability": "nonpayable",
      "type": "function"
    },
    {
      "inputs": [
        {
          "internalType": "address",
          "name": "_buyerId",
          "type": "address"
        }
      ],
      "name": "verifyBuyer",
      "outputs": [],
      "stateMutability": "nonpayable",
      "type": "function"
    },
    {
      "inputs": [
        {
          "internalType": "address",
          "name": "_buyerId",
          "type": "address"
        }
      ],
      "name": "rejectBuyer",
      "outputs": [],
      "stateMutability": "nonpayable",
      "type": "function"
    },
    {
      "inputs": [
        {
          "internalType": "uint256",
          "name": "_landId",
          "type": "uint256"
        }
      ],
      "name": "verifyLand",
      "outputs": [],
      "stateMutability": "nonpayable",
      "type": "function"
    },
    {
      "inputs": [
        {
          "internalType": "uint256",
          "name": "_id",
          "type": "uint256"
        }
      ],
      "name": "isLandVerified",
      "outputs": [
        {
          "internalType": "bool",
          "name": "",
          "type": "bool"
        }
      ],
      "stateMutability": "view",
      "type": "function"
    },
    {
      "inputs": [
        {
          "internalType": "address",
          "name": "_id",
          "type": "address"
        }
      ],
      "name": "isVerified",
      "outputs": [
        {
          "internalType": "bool",
          "name": "",
          "type": "bool"
        }
      ],
      "stateMutability": "view",
      "type": "function"
    },
    {
      "inputs": [
        {
          "internalType": "address",
          "name": "_id",
          "type": "address"
        }
      ],
      "name": "isRejected",
      "outputs": [
        {
          "internalType": "bool",
          "name": "",
          "type": "bool"
        }
      ],
      "stateMutability": "view",
      "type": "function"
    },
    {
      "inputs": [
        {
          "internalType": "address",
          "name": "_id",
          "type": "address"
        }
      ],
      "name": "isSeller",
      "outputs": [
        {
          "internalType": "bool",
          "name": "",
          "type": "bool"
        }
      ],
      "stateMutability": "view",
      "type": "function"
    },
    {
      "inputs": [
        {
          "internalType": "address",
          "name": "_id",
          "type": "address"
        }
      ],
      "name": "isLandInspector",
      "outputs": [
        {
          "internalType": "bool",
          "name": "",
          "type": "bool"
        }
      ],
      "stateMutability": "view",
      "type": "function"
    },
    {
      "inputs": [
        {
          "internalType": "address",
          "name": "_id",
          "type": "address"
        }
      ],
      "name": "isBuyer",
      "outputs": [
        {
          "internalType": "bool",
          "name": "",
          "type": "bool"
        }
      ],
      "stateMutability": "view",
      "type": "function"
    },
    {
      "inputs": [
        {
          "internalType": "address",
          "name": "_id",
          "type": "address"
        }
      ],
      "name": "isRegistered",
      "outputs": [
        {
          "internalType": "bool",
          "name": "",
          "type": "bool"
        }
      ],
      "stateMutability": "view",
      "type": "function"
    },
    {
      "inputs": [
        {
          "internalType": "uint256",
          "name": "_area",
          "type": "uint256"
        },
        {
          "internalType": "string",
          "name": "_city",
          "type": "string"
        },
        {
          "internalType": "string",
          "name": "_state",
          "type": "string"
        },
        {
          "internalType": "uint256",
          "name": "landPrice",
          "type": "uint256"
        },
        {
          "internalType": "uint256",
          "name": "_propertyPID",
          "type": "uint256"
        },
        {
          "internalType": "uint256",
          "name": "_surveyNum",
          "type": "uint256"
        },
        {
          "internalType": "string",
          "name": "_ipfsHash",
          "type": "string"
        },
        {
          "internalType": "string",
          "name": "_document",
          "type": "string"
        }
      ],
      "name": "addLand",
      "outputs": [],
      "stateMutability": "nonpayable",
      "type": "function"
    },
    {
      "inputs": [
        {
          "internalType": "string",
          "name": "_name",
          "type": "string"
        },
        {
          "internalType": "uint256",
          "name": "_age",
          "type": "uint256"
        },
        {
          "internalType": "string",
          "name": "_aadharNumber",
          "type": "string"
        },
        {
          "internalType": "string",
          "name": "_panNumber",
          "type": "string"
        },
        {
          "internalType": "string",
          "name": "_landsOwned",
          "type": "string"
        },
        {
          "internalType": "string",
          "name": "_document",
          "type": "string"
        }
      ],
      "name": "registerSeller",
      "outputs": [],
      "stateMutability": "nonpayable",
      "type": "function"
    },
    {
      "inputs": [
        {
          "internalType": "string",
          "name": "_name",
          "type": "string"
        },
        {
          "internalType": "uint256",
          "name": "_age",
          "type": "uint256"
        },
        {
          "internalType": "string",
          "name": "_aadharNumber",
          "type": "string"
        },
        {
          "internalType": "string",
          "name": "_panNumber",
          "type": "string"
        },
        {
          "internalType": "string",
          "name": "_landsOwned",
          "type": "string"
        }
      ],
      "name": "updateSeller",
      "outputs": [],
      "stateMutability": "nonpayable",
      "type": "function"
    },
    {
      "inputs": [],
      "name": "getSeller",
      "outputs": [
        {
          "internalType": "address[]",
          "name": "",
          "type": "address[]"
        }
      ],
      "stateMutability": "view",
      "type": "function"
    },
    {
      "inputs": [
        {
          "internalType": "address",
          "name": "i",
          "type": "address"
        }
      ],
      "name": "getSellerDetails",
      "outputs": [
        {
          "internalType": "string",
          "name": "",
          "type": "string"
        },
        {
          "internalType": "uint256",
          "name": "",
          "type": "uint256"
        },
        {
          "internalType": "string",
          "name": "",
          "type": "string"
        },
        {
          "internalType": "string",
          "name": "",
          "type": "string"
        },
        {
          "internalType": "string",
          "name": "",
          "type": "string"
        },
        {
          "internalType": "string",
          "name": "",
          "type": "string"
        }
      ],
      "stateMutability": "view",
      "type": "function"
    },
    {
      "inputs": [
        {
          "internalType": "string",
          "name": "_name",
          "type": "string"
        },
        {
          "internalType": "uint256",
          "name": "_age",
          "type": "uint256"
        },
        {
          "internalType": "string",
          "name": "_city",
          "type": "string"
        },
        {
          "internalType": "string",
          "name": "_aadharNumber",
          "type": "string"
        },
        {
          "internalType": "string",
          "name": "_panNumber",
          "type": "string"
        },
        {
          "internalType": "string",
          "name": "_document",
          "type": "string"
        },
        {
          "internalType": "string",
          "name": "_email",
          "type": "string"
        }
      ],
      "name": "registerBuyer",
      "outputs": [],
      "stateMutability": "nonpayable",
      "type": "function"
    },
    {
      "inputs": [
        {
          "internalType": "string",
          "name": "_name",
          "type": "string"
        },
        {
          "internalType": "uint256",
          "name": "_age",
          "type": "uint256"
        },
        {
          "internalType": "string",
          "name": "_city",
          "type": "string"
        },
        {
          "internalType": "string",
          "name": "_aadharNumber",
          "type": "string"
        },
        {
          "internalType": "string",
          "name": "_email",
          "type": "string"
        },
        {
          "internalType": "string",
          "name": "_panNumber",
          "type": "string"
        }
      ],
      "name": "updateBuyer",
      "outputs": [],
      "stateMutability": "nonpayable",
      "type": "function"
    },
    {
      "inputs": [],
      "name": "getBuyer",
      "outputs": [
        {
          "internalType": "address[]",
          "name": "",
          "type": "address[]"
        }
      ],
      "stateMutability": "view",
      "type": "function"
    },
    {
      "inputs": [
        {
          "internalType": "address",
          "name": "i",
          "type": "address"
        }
      ],
      "name": "getBuyerDetails",
      "outputs": [
        {
          "internalType": "string",
          "name": "",
          "type": "string"
        },
        {
          "internalType": "string",
          "name": "",
          "type": "string"
        },
        {
          "internalType": "string",
          "name": "",
          "type": "string"
        },
        {
          "internalType": "string",
          "name": "",
          "type": "string"
        },
        {
          "internalType": "string",
          "name": "",
          "type": "string"
        },
        {
          "internalType": "uint256",
          "name": "",
          "type": "uint256"
        },
        {
          "internalType": "string",
          "name": "",
          "type": "string"
        }
      ],
      "stateMutability": "view",
      "type": "function"
    },
    {
      "inputs": [
        {
          "internalType": "address",
          "name": "_sellerId",
          "type": "address"
        },
        {
          "internalType": "uint256",
          "name": "_landId",
          "type": "uint256"
        }
      ],
      "name": "requestLand",
      "outputs": [],
      "stateMutability": "nonpayable",
      "type": "function"
    },
    {
      "inputs": [
        {
          "internalType": "uint256",
          "name": "i",
          "type": "uint256"
        }
      ],
      "name": "getRequestDetails",
      "outputs": [
        {
          "internalType": "address",
          "name": "",
          "type": "address"
        },
        {
          "internalType": "address",
          "name": "",
          "type": "address"
        },
        {
          "internalType": "uint256",
          "name": "",
          "type": "uint256"
        },
        {
          "internalType": "bool",
          "name": "",
          "type": "bool"
        }
      ],
      "stateMutability": "view",
      "type": "function"
    },
    {
      "inputs": [
        {
          "internalType": "uint256",
          "name": "_id",
          "type": "uint256"
        }
      ],
      "name": "isRequested",
      "outputs": [
        {
          "internalType": "bool",
          "name": "",
          "type": "bool"
        }
      ],
      "stateMutability": "view",
      "type": "function"
    },
    {
      "inputs": [
        {
          "internalType": "uint256",
          "name": "_id",
          "type": "uint256"
        }
      ],
      "name": "isApproved",
      "outputs": [
        {
          "internalType": "bool",
          "name": "",
          "type": "bool"
        }
      ],
      "stateMutability": "view",
      "type": "function"
    },
    {
      "inputs": [
        {
          "internalType": "uint256",
          "name": "_reqId",
          "type": "uint256"
        }
      ],
      "name": "approveRequest",
      "outputs": [],
      "stateMutability": "nonpayable",
      "type": "function"
    },
    {
      "inputs": [
        {
          "internalType": "uint256",
          "name": "_landId",
          "type": "uint256"
        },
        {
          "internalType": "address",
          "name": "_newOwner",
          "type": "address"
        }
      ],
      "name": "LandOwnershipTransfer",
      "outputs": [],
      "stateMutability": "nonpayable",
      "type": "function"
    },
    {
      "inputs": [
        {
          "internalType": "uint256",
          "name": "_landId",
          "type": "uint256"
        }
      ],
      "name": "isPaid",
      "outputs": [
        {
          "internalType": "bool",
          "name": "",
          "type": "bool"
        }
      ],
      "stateMutability": "view",
      "type": "function"
    },
    {
      "inputs": [
        {
          "internalType": "address payable",
          "name": "_receiver",
          "type": "address"
        },
        {
          "internalType": "uint256",
          "name": "_landId",
          "type": "uint256"
        }
      ],
      "name": "payment",
      "outputs": [],
      "stateMutability": "payable",
      "type": "function"
    }
  ],
  "bytecode": "0x608060405234801562000010575f80fd5b503360115f6101000a81548173ffffffffffffffffffffffffffffffffffffffff021916908373ffffffffffffffffffffffffffffffffffffffff160217905550620000cf6040518060400160405280600b81526020017f496e73706563746f722031000000000000000000000000000000000000000000815250602d6040518060400160405280600e81526020017f54656873696c204d616e61676572000000000000000000000000000000000000815250620000d560201b60201c565b6200052f565b60155f815480929190620000e990620001a4565b9190505550604051806080016040528060155481526020018481526020018381526020018281525060015f60155481526020019081526020015f205f820151815f015560208201518160010190816200014391906200044b565b506040820151816002015560608201518160030190816200016591906200044b565b50905050505050565b7f4e487b71000000000000000000000000000000000000000000000000000000005f52601160045260245ffd5b5f819050919050565b5f620001b0826200019b565b91507fffffffffffffffffffffffffffffffffffffffffffffffffffffffffffffffff8203620001e557620001e46200016e565b5b600182019050919050565b5f81519050919050565b7f4e487b71000000000000000000000000000000000000000000000000000000005f52604160045260245ffd5b7f4e487b71000000000000000000000000000000000000000000000000000000005f52602260045260245ffd5b5f60028204905060018216806200026c57607f821691505b60208210810362000282576200028162000227565b5b50919050565b5f819050815f5260205f209050919050565b5f6020601f8301049050919050565b5f82821b905092915050565b5f60088302620002e67fffffffffffffffffffffffffffffffffffffffffffffffffffffffffffffffff82620002a9565b620002f28683620002a9565b95508019841693508086168417925050509392505050565b5f819050919050565b5f620003336200032d62000327846200019b565b6200030a565b6200019b565b9050919050565b5f819050919050565b6200034e8362000313565b620003666200035d826200033a565b848454620002b5565b825550505050565b5f90565b6200037c6200036e565b6200038981848462000343565b505050565b5b81811015620003b057620003a45f8262000372565b6001810190506200038f565b5050565b601f821115620003ff57620003c98162000288565b620003d4846200029a565b81016020851015620003e4578190505b620003fc620003f3856200029a565b8301826200038e565b50505b505050565b5f82821c905092915050565b5f620004215f198460080262000404565b1980831691505092915050565b5f6200043b838362000410565b9150826002028217905092915050565b6200045682620001f0565b67ffffffffffffffff811115620004725762000471620001fa565b5b6200047e825462000254565b6200048b828285620003b4565b5f60209050601f831160018114620004c1575f8415620004ac578287015190505b620004b885826200042e565b86555062000527565b601f198416620004d18662000288565b5f5b82811015620004fa57848901518255600182019150602085019450602081019050620004d3565b868310156200051a578489015162000516601f89168262000410565b8355505b6001600288020188555050505b505050505050565b6153f1806200053d5f395ff3fe6080604052600436106103e3575f3560e01c8063a47d4c0211610207578063dd9d122d11610117578063e7572230116100aa578063f34d4c6311610079578063f34d4c63146110d3578063f3f0c21814611112578063f58f85b51461113a578063f9c43bdf14611176578063fbfa4b7f1461119e576103e3565b8063e757223014610ff5578063ee95feaf14611031578063f0d3a9df1461106d578063f2aa821814611097576103e3565b8063e1ecc794116100e6578063e1ecc79414610f25578063e261f1e514610f4d578063e4b2611514610f91578063e530c40014610fcd576103e3565b8063dd9d122d14610e3e578063dec091ad14610e68578063def936c314610eaa578063e165af8714610ee9576103e3565b8063bed403c71161019a578063cee26ed511610169578063cee26ed514610d4c578063d1760e6014610d88578063d713065114610db0578063d7d1bbdb14610dec578063dbd0e1b614610e14576103e3565b8063bed403c714610c84578063c3c5a54714610cac578063c560b4e514610ce8578063cd392a8314610d10576103e3565b8063b0a5dcd3116101d6578063b0a5dcd314610b9e578063b3c8fe8514610bdd578063b9209e3314610c1e578063ba49a08c14610c5a576103e3565b8063a47d4c0214610aa7578063a4a0f6c014610ae3578063a6dc41fb14610b1f578063ab51707414610b5b576103e3565b8063601e7c34116103025780637910867b11610295578063933836481161026457806393383648146109b3578063941e2426146109db578063989376b414610a055780639ae9711e14610a415780639dc1bfa914610a6b576103e3565b80637910867b146108d757806383546501146109135780638965cde11461094f57806389d2135414610977576103e3565b806367a09c23116102d157806367a09c23146108155780636814800b1461083157806368cfe6ee146108595780636cbf6cf81461089b576103e3565b8063601e7c3414610737578063603daf9a1461077357806363f171431461079d5780636490c7a8146107d9576103e3565b80632607aafa1161037a57806344c9af281161034957806344c9af281461065b57806348a46bd3146106975780634daa9dae146106d35780634e2cba091461070f576103e3565b80632607aafa1461057d5780632a55feec146105b95780633410452a146105f55780633f9b250a1461061f576103e3565b8063170f3909116103b6578063170f3909146104b15780631869a38b146104db5780631a07f76e146105175780631c9afd0f14610553576103e3565b806307d56ac0146103e757806311ce462c14610423578063155fec721461044b57806316d9d66614610487575b5f80fd5b3480156103f2575f80fd5b5061040d6004803603810190610408919061437a565b6111c8565b60405161041a91906143b4565b60405180910390f35b34801561042e575f80fd5b5061044960048036038101906104449190614509565b6111e4565b005b348015610456575f80fd5b50610471600480360381019061046c919061437a565b61149e565b60405161047e9190614638565b60405180910390f35b348015610492575f80fd5b5061049b6114d1565b6040516104a891906143b4565b60405180910390f35b3480156104bc575f80fd5b506104c56114da565b6040516104d29190614690565b60405180910390f35b3480156104e6575f80fd5b5061050160048036038101906104fc919061437a565b6114ff565b60405161050e9190614690565b60405180910390f35b348015610522575f80fd5b5061053d6004803603810190610538919061437a565b611538565b60405161054a9190614638565b60405180910390f35b34801561055e575f80fd5b50610567611555565b60405161057491906143b4565b60405180910390f35b348015610588575f80fd5b506105a3600480360381019061059e919061437a565b61155b565b6040516105b09190614723565b60405180910390f35b3480156105c4575f80fd5b506105df60048036038101906105da919061476d565b6115fe565b6040516105ec9190614638565b60405180910390f35b348015610600575f80fd5b5061060961165d565b60405161061691906143b4565b60405180910390f35b34801561062a575f80fd5b506106456004803603810190610640919061437a565b611666565b6040516106529190614723565b60405180910390f35b348015610666575f80fd5b50610681600480360381019061067c919061437a565b611709565b60405161068e9190614723565b60405180910390f35b3480156106a2575f80fd5b506106bd60048036038101906106b8919061476d565b6117ac565b6040516106ca9190614638565b60405180910390f35b3480156106de575f80fd5b506106f960048036038101906106f4919061437a565b61185c565b6040516107069190614638565b60405180910390f35b34801561071a575f80fd5b5061073560048036038101906107309190614798565b611879565b005b348015610742575f80fd5b5061075d6004803603810190610758919061476d565b611b8f565b60405161076a9190614638565b60405180910390f35b34801561077e575f80fd5b50610787611bac565b6040516107949190614994565b60405180910390f35b3480156107a8575f80fd5b506107c360048036038101906107be919061476d565b611c37565b6040516107d09190614638565b60405180910390f35b3480156107e4575f80fd5b506107ff60048036038101906107fa919061437a565b611c54565b60405161080c91906143b4565b60405180910390f35b61082f600480360381019061082a91906149ef565b611c70565b005b34801561083c575f80fd5b506108576004803603810190610852919061476d565b611ce1565b005b348015610864575f80fd5b5061087f600480360381019061087a919061476d565b611d81565b6040516108929796959493929190614a2d565b60405180910390f35b3480156108a6575f80fd5b506108c160048036038101906108bc919061437a565b6122a2565b6040516108ce9190614638565b60405180910390f35b3480156108e2575f80fd5b506108fd60048036038101906108f8919061437a565b6122d5565b60405161090a9190614638565b60405180910390f35b34801561091e575f80fd5b506109396004803603810190610934919061437a565b612308565b6040516109469190614638565b60405180910390f35b34801561095a575f80fd5b506109756004803603810190610970919061476d565b612325565b005b348015610982575f80fd5b5061099d6004803603810190610998919061437a565b6123c5565b6040516109aa9190614638565b60405180910390f35b3480156109be575f80fd5b506109d960048036038101906109d49190614509565b6123e2565b005b3480156109e6575f80fd5b506109ef6126da565b6040516109fc91906143b4565b60405180910390f35b348015610a10575f80fd5b50610a2b6004803603810190610a26919061476d565b6126e0565b604051610a389190614638565b60405180910390f35b348015610a4c575f80fd5b50610a556126fd565b604051610a6291906143b4565b60405180910390f35b348015610a76575f80fd5b50610a916004803603810190610a8c919061437a565b612703565b604051610a9e9190614690565b60405180910390f35b348015610ab2575f80fd5b50610acd6004803603810190610ac8919061476d565b612733565b604051610ada9190614638565b60405180910390f35b348015610aee575f80fd5b50610b096004803603810190610b04919061437a565b612750565b604051610b1691906143b4565b60405180910390f35b348015610b2a575f80fd5b50610b456004803603810190610b40919061476d565b61276c565b604051610b529190614638565b60405180910390f35b348015610b66575f80fd5b50610b816004803603810190610b7c919061476d565b612789565b604051610b95989796959493929190614ac4565b60405180910390f35b348015610ba9575f80fd5b50610bc46004803603810190610bbf919061437a565b612b10565b604051610bd49493929190614b6a565b60405180910390f35b348015610be8575f80fd5b50610c036004803603810190610bfe919061476d565b612b7a565b604051610c1596959493929190614bad565b60405180910390f35b348015610c29575f80fd5b50610c446004803603810190610c3f919061476d565b612fcb565b604051610c519190614638565b60405180910390f35b348015610c65575f80fd5b50610c6e61307b565b604051610c7b91906143b4565b60405180910390f35b348015610c8f575f80fd5b50610caa6004803603810190610ca59190614c2f565b613081565b005b348015610cb7575f80fd5b50610cd26004803603810190610ccd919061476d565b6130e5565b604051610cdf9190614638565b60405180910390f35b348015610cf3575f80fd5b50610d0e6004803603810190610d099190614c6d565b613144565b005b348015610d1b575f80fd5b50610d366004803603810190610d31919061437a565b6133af565b604051610d439190614638565b60405180910390f35b348015610d57575f80fd5b50610d726004803603810190610d6d919061437a565b6133e2565b604051610d7f9190614690565b60405180910390f35b348015610d93575f80fd5b50610dae6004803603810190610da9919061476d565b61341d565b005b348015610dbb575f80fd5b50610dd66004803603810190610dd1919061437a565b6134bd565b604051610de39190614723565b60405180910390f35b348015610df7575f80fd5b50610e126004803603810190610e0d919061437a565b613560565b005b348015610e1f575f80fd5b50610e286135ae565b604051610e359190614994565b60405180910390f35b348015610e49575f80fd5b50610e52613639565b604051610e5f91906143b4565b60405180910390f35b348015610e73575f80fd5b50610e8e6004803603810190610e89919061476d565b613642565b604051610ea19796959493929190614d54565b60405180910390f35b348015610eb5575f80fd5b50610ed06004803603810190610ecb919061437a565b61393d565b604051610ee09493929190614de4565b60405180910390f35b348015610ef4575f80fd5b50610f0f6004803603810190610f0a919061476d565b613a75565b604051610f1c9190614638565b60405180910390f35b348015610f30575f80fd5b50610f4b6004803603810190610f46919061476d565b613adc565b005b348015610f58575f80fd5b50610f736004803603810190610f6e919061437a565b613b7c565b604051610f8899989796959493929190614e35565b60405180910390f35b348015610f9c575f80fd5b50610fb76004803603810190610fb2919061476d565b613ddd565b604051610fc49190614638565b60405180910390f35b348015610fd8575f80fd5b50610ff36004803603810190610fee9190614edc565b613dfa565b005b348015611000575f80fd5b5061101b6004803603810190611016919061437a565b613f9d565b60405161102891906143b4565b60405180910390f35b34801561103c575f80fd5b506110576004803603810190611052919061476d565b613fb9565b6040516110649190614638565b60405180910390f35b348015611078575f80fd5b50611081614018565b60405161108e91906143b4565b60405180910390f35b3480156110a2575f80fd5b506110bd60048036038101906110b8919061437a565b614021565b6040516110ca9190614690565b60405180910390f35b3480156110de575f80fd5b506110f960048036038101906110f4919061437a565b61405c565b6040516111099493929190614ffd565b60405180910390f35b34801561111d575f80fd5b5061113860048036038101906111339190615040565b61410a565b005b348015611145575f80fd5b50611160600480360381019061115b919061476d565b6142d6565b60405161116d9190614638565b60405180910390f35b348015611181575f80fd5b5061119c6004803603810190611197919061437a565b6142f3565b005b3480156111a9575f80fd5b506111b2614330565b6040516111bf91906143b4565b60405180910390f35b5f805f8381526020019081526020015f20600501549050919050565b60055f3373ffffffffffffffffffffffffffffffffffffffff1673ffffffffffffffffffffffffffffffffffffffff1681526020019081526020015f205f9054906101000a900460ff1680156112c357503373ffffffffffffffffffffffffffffffffffffffff1660035f3373ffffffffffffffffffffffffffffffffffffffff1673ffffffffffffffffffffffffffffffffffffffff1681526020019081526020015f205f015f9054906101000a900473ffffffffffffffffffffffffffffffffffffffff1673ffffffffffffffffffffffffffffffffffffffff16145b6112cb575f80fd5b8560035f3373ffffffffffffffffffffffffffffffffffffffff1673ffffffffffffffffffffffffffffffffffffffff1681526020019081526020015f2060010190816113189190615278565b508460035f3373ffffffffffffffffffffffffffffffffffffffff1673ffffffffffffffffffffffffffffffffffffffff1681526020019081526020015f20600201819055508360035f3373ffffffffffffffffffffffffffffffffffffffff1673ffffffffffffffffffffffffffffffffffffffff1681526020019081526020015f2060030190816113ab9190615278565b508260035f3373ffffffffffffffffffffffffffffffffffffffff1673ffffffffffffffffffffffffffffffffffffffff1681526020019081526020015f2060040190816113f99190615278565b508160035f3373ffffffffffffffffffffffffffffffffffffffff1673ffffffffffffffffffffffffffffffffffffffff1681526020019081526020015f2060070190816114479190615278565b508060035f3373ffffffffffffffffffffffffffffffffffffffff1673ffffffffffffffffffffffffffffffffffffffff1681526020019081526020015f2060050190816114959190615278565b50505050505050565b5f600f5f8381526020019081526020015f205f9054906101000a900460ff16156114cb57600190506114cc565b5b919050565b5f601454905090565b60115f9054906101000a900473ffffffffffffffffffffffffffffffffffffffff1681565b5f600d5f8381526020019081526020015f205f9054906101000a900473ffffffffffffffffffffffffffffffffffffffff169050919050565b6010602052805f5260405f205f915054906101000a900460ff1681565b60145481565b60605f808381526020019081526020015f20600701805461157b906150ab565b80601f01602080910402602001604051908101604052809291908181526020018280546115a7906150ab565b80156115f25780601f106115c9576101008083540402835291602001916115f2565b820191905f5260205f20905b8154815290600101906020018083116115d557829003601f168201915b50505050509050919050565b5f60075f8373ffffffffffffffffffffffffffffffffffffffff1673ffffffffffffffffffffffffffffffffffffffff1681526020019081526020015f205f9054906101000a900460ff16156116575760019050611658565b5b919050565b5f601854905090565b60605f808381526020019081526020015f206008018054611686906150ab565b80601f01602080910402602001604051908101604052809291908181526020018280546116b2906150ab565b80156116fd5780601f106116d4576101008083540402835291602001916116fd565b820191905f5260205f20905b8154815290600101906020018083116116e057829003601f168201915b50505050509050919050565b60605f808381526020019081526020015f206003018054611729906150ab565b80601f0160208091040260200160405190810160405280929190818152602001828054611755906150ab565b80156117a05780601f10611777576101008083540402835291602001916117a0565b820191905f5260205f20905b81548152906001019060200180831161178357829003601f168201915b50505050509050919050565b5f60095f8373ffffffffffffffffffffffffffffffffffffffff1673ffffffffffffffffffffffffffffffffffffffff1681526020019081526020015f205f9054906101000a900460ff16806118485750600b5f8373ffffffffffffffffffffffffffffffffffffffff1673ffffffffffffffffffffffffffffffffffffffff1681526020019081526020015f205f9054906101000a900460ff165b156118565760019050611857565b5b919050565b600f602052805f5260405f205f915054906101000a900460ff1681565b60055f3373ffffffffffffffffffffffffffffffffffffffff1673ffffffffffffffffffffffffffffffffffffffff1681526020019081526020015f205f9054906101000a900460ff16156118cc575f80fd5b600160055f3373ffffffffffffffffffffffffffffffffffffffff1673ffffffffffffffffffffffffffffffffffffffff1681526020019081526020015f205f6101000a81548160ff021916908315150217905550600160075f3373ffffffffffffffffffffffffffffffffffffffff1673ffffffffffffffffffffffffffffffffffffffff1681526020019081526020015f205f6101000a81548160ff02191690831515021790555060175f81548092919061198890615374565b91905055506040518061010001604052803373ffffffffffffffffffffffffffffffffffffffff1681526020018881526020018781526020018681526020018581526020018481526020018381526020018281525060035f3373ffffffffffffffffffffffffffffffffffffffff1673ffffffffffffffffffffffffffffffffffffffff1681526020019081526020015f205f820151815f015f6101000a81548173ffffffffffffffffffffffffffffffffffffffff021916908373ffffffffffffffffffffffffffffffffffffffff1602179055506020820151816001019081611a739190615278565b50604082015181600201556060820151816003019081611a939190615278565b506080820151816004019081611aa99190615278565b5060a0820151816005019081611abf9190615278565b5060c0820151816006019081611ad59190615278565b5060e0820151816007019081611aeb9190615278565b50905050601333908060018154018082558091505060019003905f5260205f20015f9091909190916101000a81548173ffffffffffffffffffffffffffffffffffffffff021916908373ffffffffffffffffffffffffffffffffffffffff1602179055507f478f5152d8fc568db3f8de9fb402fd9d98a1a7541ecfe434e59cf574fbfc552433604051611b7e9190614690565b60405180910390a150505050505050565b6006602052805f5260405f205f915054906101000a900460ff1681565b60606013805480602002602001604051908101604052809291908181526020018280548015611c2d57602002820191905f5260205f20905b815f9054906101000a900473ffffffffffffffffffffffffffffffffffffffff1673ffffffffffffffffffffffffffffffffffffffff1681526020019060010190808311611be4575b5050505050905090565b6009602052805f5260405f205f915054906101000a900460ff1681565b5f805f8381526020019081526020015f20600101549050919050565b600160105f8381526020019081526020015f205f6101000a81548160ff0219169083151502179055508173ffffffffffffffffffffffffffffffffffffffff166108fc3490811502906040515f60405180830381858888f19350505050158015611cdc573d5f803e3d5ffd5b505050565b611cea33613a75565b611cf2575f80fd5b6001600a5f8373ffffffffffffffffffffffffffffffffffffffff1673ffffffffffffffffffffffffffffffffffffffff1681526020019081526020015f205f6101000a81548160ff0219169083151502179055507f6a6455914f452787eb3985452aceedc1000fb545e394eb3b370e3d08958e0a5b81604051611d769190614690565b60405180910390a150565b60608060608060605f606060035f8973ffffffffffffffffffffffffffffffffffffffff1673ffffffffffffffffffffffffffffffffffffffff1681526020019081526020015f2060010160035f8a73ffffffffffffffffffffffffffffffffffffffff1673ffffffffffffffffffffffffffffffffffffffff1681526020019081526020015f2060030160035f8b73ffffffffffffffffffffffffffffffffffffffff1673ffffffffffffffffffffffffffffffffffffffff1681526020019081526020015f2060050160035f8c73ffffffffffffffffffffffffffffffffffffffff1673ffffffffffffffffffffffffffffffffffffffff1681526020019081526020015f2060060160035f8d73ffffffffffffffffffffffffffffffffffffffff1673ffffffffffffffffffffffffffffffffffffffff1681526020019081526020015f2060070160035f8e73ffffffffffffffffffffffffffffffffffffffff1673ffffffffffffffffffffffffffffffffffffffff1681526020019081526020015f206002015460035f8f73ffffffffffffffffffffffffffffffffffffffff1673ffffffffffffffffffffffffffffffffffffffff1681526020019081526020015f20600401868054611f59906150ab565b80601f0160208091040260200160405190810160405280929190818152602001828054611f85906150ab565b8015611fd05780601f10611fa757610100808354040283529160200191611fd0565b820191905f5260205f20905b815481529060010190602001808311611fb357829003601f168201915b50505050509650858054611fe3906150ab565b80601f016020809104026020016040519081016040528092919081815260200182805461200f906150ab565b801561205a5780601f106120315761010080835404028352916020019161205a565b820191905f5260205f20905b81548152906001019060200180831161203d57829003601f168201915b5050505050955084805461206d906150ab565b80601f0160208091040260200160405190810160405280929190818152602001828054612099906150ab565b80156120e45780601f106120bb576101008083540402835291602001916120e4565b820191905f5260205f20905b8154815290600101906020018083116120c757829003601f168201915b505050505094508380546120f7906150ab565b80601f0160208091040260200160405190810160405280929190818152602001828054612123906150ab565b801561216e5780601f106121455761010080835404028352916020019161216e565b820191905f5260205f20905b81548152906001019060200180831161215157829003601f168201915b50505050509350828054612181906150ab565b80601f01602080910402602001604051908101604052809291908181526020018280546121ad906150ab565b80156121f85780601f106121cf576101008083540402835291602001916121f8565b820191905f5260205f20905b8154815290600101906020018083116121db57829003601f168201915b5050505050925080805461220b906150ab565b80601f0160208091040260200160405190810160405280929190818152602001828054612237906150ab565b80156122825780601f1061225957610100808354040283529160200191612282565b820191905f5260205f20905b81548152906001019060200180831161226557829003601f168201915b505050505090509650965096509650965096509650919395979092949650565b5f600c5f8381526020019081526020015f205f9054906101000a900460ff16156122cf57600190506122d0565b5b919050565b5f600e5f8381526020019081526020015f205f9054906101000a900460ff16156123025760019050612303565b5b919050565b600c602052805f5260405f205f915054906101000a900460ff1681565b61232e33613a75565b612336575f80fd5b6001600b5f8373ffffffffffffffffffffffffffffffffffffffff1673ffffffffffffffffffffffffffffffffffffffff1681526020019081526020015f205f6101000a81548160ff0219169083151502179055507faf77f8960cf590e245ec8b6d41c193a5dcacad8986ae4eb57ac9e5be7b6af031816040516123ba9190614690565b60405180910390a150565b600e602052805f5260405f205f915054906101000a900460ff1681565b60055f3373ffffffffffffffffffffffffffffffffffffffff1673ffffffffffffffffffffffffffffffffffffffff1681526020019081526020015f205f9054906101000a900460ff1615612435575f80fd5b600160055f3373ffffffffffffffffffffffffffffffffffffffff1673ffffffffffffffffffffffffffffffffffffffff1681526020019081526020015f205f6101000a81548160ff021916908315150217905550600160065f3373ffffffffffffffffffffffffffffffffffffffff1673ffffffffffffffffffffffffffffffffffffffff1681526020019081526020015f205f6101000a81548160ff02191690831515021790555060165f8154809291906124f190615374565b91905055506040518060e001604052803373ffffffffffffffffffffffffffffffffffffffff1681526020018781526020018681526020018581526020018481526020018381526020018281525060025f3373ffffffffffffffffffffffffffffffffffffffff1673ffffffffffffffffffffffffffffffffffffffff1681526020019081526020015f205f820151815f015f6101000a81548173ffffffffffffffffffffffffffffffffffffffff021916908373ffffffffffffffffffffffffffffffffffffffff16021790555060208201518160010190816125d59190615278565b506040820151816002015560608201518160030190816125f59190615278565b50608082015181600401908161260b9190615278565b5060a08201518160050190816126219190615278565b5060c08201518160060190816126379190615278565b50905050601233908060018154018082558091505060019003905f5260205f20015f9091909190916101000a81548173ffffffffffffffffffffffffffffffffffffffff021916908373ffffffffffffffffffffffffffffffffffffffff1602179055507f478f5152d8fc568db3f8de9fb402fd9d98a1a7541ecfe434e59cf574fbfc5524336040516126ca9190614690565b60405180910390a1505050505050565b60155481565b600b602052805f5260405f205f915054906101000a900460ff1681565b60165481565b600d602052805f5260405f205f915054906101000a900473ffffffffffffffffffffffffffffffffffffffff1681565b6007602052805f5260405f205f915054906101000a900460ff1681565b5f805f8381526020019081526020015f20600601549050919050565b600a602052805f5260405f205f915054906101000a900460ff1681565b6003602052805f5260405f205f91509050805f015f9054906101000a900473ffffffffffffffffffffffffffffffffffffffff16908060010180546127cd906150ab565b80601f01602080910402602001604051908101604052809291908181526020018280546127f9906150ab565b80156128445780601f1061281b57610100808354040283529160200191612844565b820191905f5260205f20905b81548152906001019060200180831161282757829003601f168201915b50505050509080600201549080600301805461285f906150ab565b80601f016020809104026020016040519081016040528092919081815260200182805461288b906150ab565b80156128d65780601f106128ad576101008083540402835291602001916128d6565b820191905f5260205f20905b8154815290600101906020018083116128b957829003601f168201915b5050505050908060040180546128eb906150ab565b80601f0160208091040260200160405190810160405280929190818152602001828054612917906150ab565b80156129625780601f1061293957610100808354040283529160200191612962565b820191905f5260205f20905b81548152906001019060200180831161294557829003601f168201915b505050505090806005018054612977906150ab565b80601f01602080910402602001604051908101604052809291908181526020018280546129a3906150ab565b80156129ee5780601f106129c5576101008083540402835291602001916129ee565b820191905f5260205f20905b8154815290600101906020018083116129d157829003601f168201915b505050505090806006018054612a03906150ab565b80601f0160208091040260200160405190810160405280929190818152602001828054612a2f906150ab565b8015612a7a5780601f10612a5157610100808354040283529160200191612a7a565b820191905f5260205f20905b815481529060010190602001808311612a5d57829003601f168201915b505050505090806007018054612a8f906150ab565b80601f0160208091040260200160405190810160405280929190818152602001828054612abb906150ab565b8015612b065780601f10612add57610100808354040283529160200191612b06565b820191905f5260205f20905b815481529060010190602001808311612ae957829003601f168201915b5050505050905088565b6004602052805f5260405f205f91509050805f015490806001015f9054906101000a900473ffffffffffffffffffffffffffffffffffffffff1690806002015f9054906101000a900473ffffffffffffffffffffffffffffffffffffffff16908060030154905084565b60605f60608060608060025f8873ffffffffffffffffffffffffffffffffffffffff1673ffffffffffffffffffffffffffffffffffffffff1681526020019081526020015f2060010160025f8973ffffffffffffffffffffffffffffffffffffffff1673ffffffffffffffffffffffffffffffffffffffff1681526020019081526020015f206002015460025f8a73ffffffffffffffffffffffffffffffffffffffff1673ffffffffffffffffffffffffffffffffffffffff1681526020019081526020015f2060030160025f8b73ffffffffffffffffffffffffffffffffffffffff1673ffffffffffffffffffffffffffffffffffffffff1681526020019081526020015f2060040160025f8c73ffffffffffffffffffffffffffffffffffffffff1673ffffffffffffffffffffffffffffffffffffffff1681526020019081526020015f2060050160025f8d73ffffffffffffffffffffffffffffffffffffffff1673ffffffffffffffffffffffffffffffffffffffff1681526020019081526020015f20600601858054612d10906150ab565b80601f0160208091040260200160405190810160405280929190818152602001828054612d3c906150ab565b8015612d875780601f10612d5e57610100808354040283529160200191612d87565b820191905f5260205f20905b815481529060010190602001808311612d6a57829003601f168201915b50505050509550838054612d9a906150ab565b80601f0160208091040260200160405190810160405280929190818152602001828054612dc6906150ab565b8015612e115780601f10612de857610100808354040283529160200191612e11565b820191905f5260205f20905b815481529060010190602001808311612df457829003601f168201915b50505050509350828054612e24906150ab565b80601f0160208091040260200160405190810160405280929190818152602001828054612e50906150ab565b8015612e9b5780601f10612e7257610100808354040283529160200191612e9b565b820191905f5260205f20905b815481529060010190602001808311612e7e57829003601f168201915b50505050509250818054612eae906150ab565b80601f0160208091040260200160405190810160405280929190818152602001828054612eda906150ab565b8015612f255780601f10612efc57610100808354040283529160200191612f25565b820191905f5260205f20905b815481529060010190602001808311612f0857829003601f168201915b50505050509150808054612f38906150ab565b80601f0160208091040260200160405190810160405280929190818152602001828054612f64906150ab565b8015612faf5780601f10612f8657610100808354040283529160200191612faf565b820191905f5260205f20905b815481529060010190602001808311612f9257829003601f168201915b5050505050905095509550955095509550955091939550919395565b5f60085f8373ffffffffffffffffffffffffffffffffffffffff1673ffffffffffffffffffffffffffffffffffffffff1681526020019081526020015f205f9054906101000a900460ff16806130675750600a5f8373ffffffffffffffffffffffffffffffffffffffff1673ffffffffffffffffffffffffffffffffffffffff1681526020019081526020015f205f9054906101000a900460ff165b156130755760019050613076565b5b919050565b60175481565b61308a33613a75565b613092575f80fd5b80600d5f8481526020019081526020015f205f6101000a81548173ffffffffffffffffffffffffffffffffffffffff021916908373ffffffffffffffffffffffffffffffffffffffff1602179055505050565b5f60055f8373ffffffffffffffffffffffffffffffffffffffff1673ffffffffffffffffffffffffffffffffffffffff1681526020019081526020015f205f9054906101000a900460ff161561313e576001905061313f565b5b919050565b60055f3373ffffffffffffffffffffffffffffffffffffffff1673ffffffffffffffffffffffffffffffffffffffff1681526020019081526020015f205f9054906101000a900460ff16801561322357503373ffffffffffffffffffffffffffffffffffffffff1660025f3373ffffffffffffffffffffffffffffffffffffffff1673ffffffffffffffffffffffffffffffffffffffff1681526020019081526020015f205f015f9054906101000a900473ffffffffffffffffffffffffffffffffffffffff1673ffffffffffffffffffffffffffffffffffffffff16145b61322b575f80fd5b8460025f3373ffffffffffffffffffffffffffffffffffffffff1673ffffffffffffffffffffffffffffffffffffffff1681526020019081526020015f2060010190816132789190615278565b508360025f3373ffffffffffffffffffffffffffffffffffffffff1673ffffffffffffffffffffffffffffffffffffffff1681526020019081526020015f20600201819055508260025f3373ffffffffffffffffffffffffffffffffffffffff1673ffffffffffffffffffffffffffffffffffffffff1681526020019081526020015f20600301908161330b9190615278565b508160025f3373ffffffffffffffffffffffffffffffffffffffff1673ffffffffffffffffffffffffffffffffffffffff1681526020019081526020015f2060040190816133599190615278565b508060025f3373ffffffffffffffffffffffffffffffffffffffff1673ffffffffffffffffffffffffffffffffffffffff1681526020019081526020015f2060050190816133a79190615278565b505050505050565b5f60105f8381526020019081526020015f205f9054906101000a900460ff16156133dc57600190506133dd565b5b919050565b601281815481106133f1575f80fd5b905f5260205f20015f915054906101000a900473ffffffffffffffffffffffffffffffffffffffff1681565b61342633613a75565b61342e575f80fd5b600160085f8373ffffffffffffffffffffffffffffffffffffffff1673ffffffffffffffffffffffffffffffffffffffff1681526020019081526020015f205f6101000a81548160ff0219169083151502179055507f6a6455914f452787eb3985452aceedc1000fb545e394eb3b370e3d08958e0a5b816040516134b29190614690565b60405180910390a150565b60605f808381526020019081526020015f2060020180546134dd906150ab565b80601f0160208091040260200160405190810160405280929190818152602001828054613509906150ab565b80156135545780601f1061352b57610100808354040283529160200191613554565b820191905f5260205f20905b81548152906001019060200180831161353757829003601f168201915b50505050509050919050565b61356933613fb9565b801561357a575061357933612fcb565b5b613582575f80fd5b6001600e5f8381526020019081526020015f205f6101000a81548160ff02191690831515021790555050565b6060601280548060200260200160405190810160405280929190818152602001828054801561362f57602002820191905f5260205f20905b815f9054906101000a900473ffffffffffffffffffffffffffffffffffffffff1673ffffffffffffffffffffffffffffffffffffffff16815260200190600101908083116135e6575b5050505050905090565b5f601654905090565b6002602052805f5260405f205f91509050805f015f9054906101000a900473ffffffffffffffffffffffffffffffffffffffff1690806001018054613686906150ab565b80601f01602080910402602001604051908101604052809291908181526020018280546136b2906150ab565b80156136fd5780601f106136d4576101008083540402835291602001916136fd565b820191905f5260205f20905b8154815290600101906020018083116136e057829003601f168201915b505050505090806002015490806003018054613718906150ab565b80601f0160208091040260200160405190810160405280929190818152602001828054613744906150ab565b801561378f5780601f106137665761010080835404028352916020019161378f565b820191905f5260205f20905b81548152906001019060200180831161377257829003601f168201915b5050505050908060040180546137a4906150ab565b80601f01602080910402602001604051908101604052809291908181526020018280546137d0906150ab565b801561381b5780601f106137f25761010080835404028352916020019161381b565b820191905f5260205f20905b8154815290600101906020018083116137fe57829003601f168201915b505050505090806005018054613830906150ab565b80601f016020809104026020016040519081016040528092919081815260200182805461385c906150ab565b80156138a75780601f1061387e576101008083540402835291602001916138a7565b820191905f5260205f20905b81548152906001019060200180831161388a57829003601f168201915b5050505050908060060180546138bc906150ab565b80601f01602080910402602001604051908101604052809291908181526020018280546138e8906150ab565b80156139335780601f1061390a57610100808354040283529160200191613933565b820191905f5260205f20905b81548152906001019060200180831161391657829003601f168201915b5050505050905087565b6001602052805f5260405f205f91509050805f015490806001018054613962906150ab565b80601f016020809104026020016040519081016040528092919081815260200182805461398e906150ab565b80156139d95780601f106139b0576101008083540402835291602001916139d9565b820191905f5260205f20905b8154815290600101906020018083116139bc57829003601f168201915b5050505050908060020154908060030180546139f4906150ab565b80601f0160208091040260200160405190810160405280929190818152602001828054613a20906150ab565b8015613a6b5780601f10613a4257610100808354040283529160200191613a6b565b820191905f5260205f20905b815481529060010190602001808311613a4e57829003601f168201915b5050505050905084565b5f8173ffffffffffffffffffffffffffffffffffffffff1660115f9054906101000a900473ffffffffffffffffffffffffffffffffffffffff1673ffffffffffffffffffffffffffffffffffffffff1603613ad35760019050613ad7565b5f90505b919050565b613ae533613a75565b613aed575f80fd5b600160095f8373ffffffffffffffffffffffffffffffffffffffff1673ffffffffffffffffffffffffffffffffffffffff1681526020019081526020015f205f6101000a81548160ff0219169083151502179055507faf77f8960cf590e245ec8b6d41c193a5dcacad8986ae4eb57ac9e5be7b6af03181604051613b719190614690565b60405180910390a150565b5f602052805f5260405f205f91509050805f015490806001015490806002018054613ba6906150ab565b80601f0160208091040260200160405190810160405280929190818152602001828054613bd2906150ab565b8015613c1d5780601f10613bf457610100808354040283529160200191613c1d565b820191905f5260205f20905b815481529060010190602001808311613c0057829003601f168201915b505050505090806003018054613c32906150ab565b80601f0160208091040260200160405190810160405280929190818152602001828054613c5e906150ab565b8015613ca95780601f10613c8057610100808354040283529160200191613ca9565b820191905f5260205f20905b815481529060010190602001808311613c8c57829003601f168201915b505050505090806004015490806005015490806006015490806007018054613cd0906150ab565b80601f0160208091040260200160405190810160405280929190818152602001828054613cfc906150ab565b8015613d475780601f10613d1e57610100808354040283529160200191613d47565b820191905f5260205f20905b815481529060010190602001808311613d2a57829003601f168201915b505050505090806008018054613d5c906150ab565b80601f0160208091040260200160405190810160405280929190818152602001828054613d88906150ab565b8015613dd35780601f10613daa57610100808354040283529160200191613dd3565b820191905f5260205f20905b815481529060010190602001808311613db657829003601f168201915b5050505050905089565b6008602052805f5260405f205f915054906101000a900460ff1681565b613e0333613fb9565b8015613e145750613e1333612fcb565b5b613e1c575f80fd5b60145f815480929190613e2e90615374565b91905055506040518061012001604052806014548152602001898152602001888152602001878152602001868152602001858152602001848152602001838152602001828152505f8060145481526020019081526020015f205f820151815f0155602082015181600101556040820151816002019081613eae9190615278565b506060820151816003019081613ec49190615278565b506080820151816004015560a0820151816005015560c0820151816006015560e0820151816007019081613ef89190615278565b50610100820151816008019081613f0f9190615278565b5090505033600d5f60145481526020019081526020015f205f6101000a81548173ffffffffffffffffffffffffffffffffffffffff021916908373ffffffffffffffffffffffffffffffffffffffff1602179055506014547f1683494da6843132b363282b9c61279cdc5f214c099a31557fc4d0eaad2f4d2960405160405180910390a25050505050505050565b5f805f8381526020019081526020015f20600401549050919050565b5f60065f8373ffffffffffffffffffffffffffffffffffffffff1673ffffffffffffffffffffffffffffffffffffffff1681526020019081526020015f205f9054906101000a900460ff16156140125760019050614013565b5b919050565b5f601754905090565b60138181548110614030575f80fd5b905f5260205f20015f915054906101000a900473ffffffffffffffffffffffffffffffffffffffff1681565b5f805f8060045f8681526020019081526020015f206001015f9054906101000a900473ffffffffffffffffffffffffffffffffffffffff1660045f8781526020019081526020015f206002015f9054906101000a900473ffffffffffffffffffffffffffffffffffffffff1660045f8881526020019081526020015f2060030154600e5f8981526020019081526020015f205f9054906101000a900460ff1693509350935093509193509193565b614113336115fe565b8015614124575061412333612fcb565b5b61412c575f80fd5b60185f81548092919061413e90615374565b9190505550604051806080016040528060185481526020018373ffffffffffffffffffffffffffffffffffffffff1681526020013373ffffffffffffffffffffffffffffffffffffffff1681526020018281525060045f60185481526020019081526020015f205f820151815f01556020820151816001015f6101000a81548173ffffffffffffffffffffffffffffffffffffffff021916908373ffffffffffffffffffffffffffffffffffffffff1602179055506040820151816002015f6101000a81548173ffffffffffffffffffffffffffffffffffffffff021916908373ffffffffffffffffffffffffffffffffffffffff160217905550606082015181600301559050505f600e5f60185481526020019081526020015f205f6101000a81548160ff0219169083151502179055506001600f5f60185481526020019081526020015f205f6101000a81548160ff0219169083151502179055507fc67eb70629da758128cec22f7e36ad0676066ad4df9b66e8ba58a30c1ab4075b826040516142ca9190614690565b60405180910390a15050565b6005602052805f5260405f205f915054906101000a900460ff1681565b6142fc33613a75565b614304575f80fd5b6001600c5f8381526020019081526020015f205f6101000a81548160ff02191690831515021790555050565b60185481565b5f604051905090565b5f80fd5b5f80fd5b5f819050919050565b61435981614347565b8114614363575f80fd5b50565b5f8135905061437481614350565b92915050565b5f6020828403121561438f5761438e61433f565b5b5f61439c84828501614366565b91505092915050565b6143ae81614347565b82525050565b5f6020820190506143c75f8301846143a5565b92915050565b5f80fd5b5f80fd5b5f601f19601f8301169050919050565b7f4e487b71000000000000000000000000000000000000000000000000000000005f52604160045260245ffd5b61441b826143d5565b810181811067ffffffffffffffff8211171561443a576144396143e5565b5b80604052505050565b5f61444c614336565b90506144588282614412565b919050565b5f67ffffffffffffffff821115614477576144766143e5565b5b614480826143d5565b9050602081019050919050565b828183375f83830152505050565b5f6144ad6144a88461445d565b614443565b9050828152602081018484840111156144c9576144c86143d1565b5b6144d484828561448d565b509392505050565b5f82601f8301126144f0576144ef6143cd565b5b813561450084826020860161449b565b91505092915050565b5f805f805f8060c087890312156145235761452261433f565b5b5f87013567ffffffffffffffff8111156145405761453f614343565b5b61454c89828a016144dc565b965050602061455d89828a01614366565b955050604087013567ffffffffffffffff81111561457e5761457d614343565b5b61458a89828a016144dc565b945050606087013567ffffffffffffffff8111156145ab576145aa614343565b5b6145b789828a016144dc565b935050608087013567ffffffffffffffff8111156145d8576145d7614343565b5b6145e489828a016144dc565b92505060a087013567ffffffffffffffff81111561460557614604614343565b5b61461189828a016144dc565b9150509295509295509295565b5f8115159050919050565b6146328161461e565b82525050565b5f60208201905061464b5f830184614629565b92915050565b5f73ffffffffffffffffffffffffffffffffffffffff82169050919050565b5f61467a82614651565b9050919050565b61468a81614670565b82525050565b5f6020820190506146a35f830184614681565b92915050565b5f81519050919050565b5f82825260208201905092915050565b5f5b838110156146e05780820151818401526020810190506146c5565b5f8484015250505050565b5f6146f5826146a9565b6146ff81856146b3565b935061470f8185602086016146c3565b614718816143d5565b840191505092915050565b5f6020820190508181035f83015261473b81846146eb565b905092915050565b61474c81614670565b8114614756575f80fd5b50565b5f8135905061476781614743565b92915050565b5f602082840312156147825761478161433f565b5b5f61478f84828501614759565b91505092915050565b5f805f805f805f60e0888a0312156147b3576147b261433f565b5b5f88013567ffffffffffffffff8111156147d0576147cf614343565b5b6147dc8a828b016144dc565b97505060206147ed8a828b01614366565b965050604088013567ffffffffffffffff81111561480e5761480d614343565b5b61481a8a828b016144dc565b955050606088013567ffffffffffffffff81111561483b5761483a614343565b5b6148478a828b016144dc565b945050608088013567ffffffffffffffff81111561486857614867614343565b5b6148748a828b016144dc565b93505060a088013567ffffffffffffffff81111561489557614894614343565b5b6148a18a828b016144dc565b92505060c088013567ffffffffffffffff8111156148c2576148c1614343565b5b6148ce8a828b016144dc565b91505092959891949750929550565b5f81519050919050565b5f82825260208201905092915050565b5f819050602082019050919050565b61490f81614670565b82525050565b5f6149208383614906565b60208301905092915050565b5f602082019050919050565b5f614942826148dd565b61494c81856148e7565b9350614957836148f7565b805f5b8381101561498757815161496e8882614915565b97506149798361492c565b92505060018101905061495a565b5085935050505092915050565b5f6020820190508181035f8301526149ac8184614938565b905092915050565b5f6149be82614651565b9050919050565b6149ce816149b4565b81146149d8575f80fd5b50565b5f813590506149e9816149c5565b92915050565b5f8060408385031215614a0557614a0461433f565b5b5f614a12858286016149db565b9250506020614a2385828601614366565b9150509250929050565b5f60e0820190508181035f830152614a45818a6146eb565b90508181036020830152614a5981896146eb565b90508181036040830152614a6d81886146eb565b90508181036060830152614a8181876146eb565b90508181036080830152614a9581866146eb565b9050614aa460a08301856143a5565b81810360c0830152614ab681846146eb565b905098975050505050505050565b5f61010082019050614ad85f83018b614681565b8181036020830152614aea818a6146eb565b9050614af960408301896143a5565b8181036060830152614b0b81886146eb565b90508181036080830152614b1f81876146eb565b905081810360a0830152614b3381866146eb565b905081810360c0830152614b4781856146eb565b905081810360e0830152614b5b81846146eb565b90509998505050505050505050565b5f608082019050614b7d5f8301876143a5565b614b8a6020830186614681565b614b976040830185614681565b614ba460608301846143a5565b95945050505050565b5f60c0820190508181035f830152614bc581896146eb565b9050614bd460208301886143a5565b8181036040830152614be681876146eb565b90508181036060830152614bfa81866146eb565b90508181036080830152614c0e81856146eb565b905081810360a0830152614c2281846146eb565b9050979650505050505050565b5f8060408385031215614c4557614c4461433f565b5b5f614c5285828601614366565b9250506020614c6385828601614759565b9150509250929050565b5f805f805f60a08688031215614c8657614c8561433f565b5b5f86013567ffffffffffffffff811115614ca357614ca2614343565b5b614caf888289016144dc565b9550506020614cc088828901614366565b945050604086013567ffffffffffffffff811115614ce157614ce0614343565b5b614ced888289016144dc565b935050606086013567ffffffffffffffff811115614d0e57614d0d614343565b5b614d1a888289016144dc565b925050608086013567ffffffffffffffff811115614d3b57614d3a614343565b5b614d47888289016144dc565b9150509295509295909350565b5f60e082019050614d675f83018a614681565b8181036020830152614d7981896146eb565b9050614d8860408301886143a5565b8181036060830152614d9a81876146eb565b90508181036080830152614dae81866146eb565b905081810360a0830152614dc281856146eb565b905081810360c0830152614dd681846146eb565b905098975050505050505050565b5f608082019050614df75f8301876143a5565b8181036020830152614e0981866146eb565b9050614e1860408301856143a5565b8181036060830152614e2a81846146eb565b905095945050505050565b5f61012082019050614e495f83018c6143a5565b614e56602083018b6143a5565b8181036040830152614e68818a6146eb565b90508181036060830152614e7c81896146eb565b9050614e8b60808301886143a5565b614e9860a08301876143a5565b614ea560c08301866143a5565b81810360e0830152614eb781856146eb565b9050818103610100830152614ecc81846146eb565b90509a9950505050505050505050565b5f805f805f805f80610100898b031215614ef957614ef861433f565b5b5f614f068b828c01614366565b985050602089013567ffffffffffffffff811115614f2757614f26614343565b5b614f338b828c016144dc565b975050604089013567ffffffffffffffff811115614f5457614f53614343565b5b614f608b828c016144dc565b9650506060614f718b828c01614366565b9550506080614f828b828c01614366565b94505060a0614f938b828c01614366565b93505060c089013567ffffffffffffffff811115614fb457614fb3614343565b5b614fc08b828c016144dc565b92505060e089013567ffffffffffffffff811115614fe157614fe0614343565b5b614fed8b828c016144dc565b9150509295985092959890939650565b5f6080820190506150105f830187614681565b61501d6020830186614681565b61502a60408301856143a5565b6150376060830184614629565b95945050505050565b5f80604083850312156150565761505561433f565b5b5f61506385828601614759565b925050602061507485828601614366565b9150509250929050565b7f4e487b71000000000000000000000000000000000000000000000000000000005f52602260045260245ffd5b5f60028204905060018216806150c257607f821691505b6020821081036150d5576150d461507e565b5b50919050565b5f819050815f5260205f209050919050565b5f6020601f8301049050919050565b5f82821b905092915050565b5f600883026151377fffffffffffffffffffffffffffffffffffffffffffffffffffffffffffffffff826150fc565b61514186836150fc565b95508019841693508086168417925050509392505050565b5f819050919050565b5f61517c61517761517284614347565b615159565b614347565b9050919050565b5f819050919050565b61519583615162565b6151a96151a182615183565b848454615108565b825550505050565b5f90565b6151bd6151b1565b6151c881848461518c565b505050565b5b818110156151eb576151e05f826151b5565b6001810190506151ce565b5050565b601f82111561523057615201816150db565b61520a846150ed565b81016020851015615219578190505b61522d615225856150ed565b8301826151cd565b50505b505050565b5f82821c905092915050565b5f6152505f1984600802615235565b1980831691505092915050565b5f6152688383615241565b9150826002028217905092915050565b615281826146a9565b67ffffffffffffffff81111561529a576152996143e5565b5b6152a482546150ab565b6152af8282856151ef565b5f60209050601f8311600181146152e0575f84156152ce578287015190505b6152d8858261525d565b86555061533f565b601f1984166152ee866150db565b5f5b82811015615315578489015182556001820191506020850194506020810190506152f0565b86831015615332578489015161532e601f891682615241565b8355505b6001600288020188555050505b505050505050565b7f4e487b71000000000000000000000000000000000000000000000000000000005f52601160045260245ffd5b5f61537e82614347565b91507fffffffffffffffffffffffffffffffffffffffffffffffffffffffffffffffff82036153b0576153af615347565b5b60018201905091905056fea2646970667358221220d3c2fa35817d549acfdb9b6a1d4b55fbf8f686975b58baa6c9bf9c3387836f5164736f6c63430008150033",
  "immutableReferences": {},
  "source": "pragma solidity >= 0.5.0;\r\n\r\ncontract Land {\r\n    struct Landreg {\r\n        uint id;\r\n        uint area;\r\n        string city;\r\n        string state;\r\n        uint landPrice;\r\n        uint propertyPID;\r\n        uint physicalSurveyNumber;\r\n        string ipfsHash;\r\n        string document;\r\n    }\r\n\r\n    struct Buyer{\r\n        address id;\r\n        string name;\r\n        uint age;\r\n        string city;\r\n        string aadharNumber;\r\n        string panNumber;\r\n        string document;\r\n        string email;\r\n    }\r\n\r\n    struct Seller{\r\n        address id;\r\n        string name;\r\n        uint age;\r\n        string aadharNumber;\r\n        string panNumber;\r\n        string landsOwned;\r\n        string document;\r\n    }\r\n\r\n    struct LandInspector {\r\n        uint id;\r\n        string name;\r\n        uint age;\r\n        string designation;\r\n    }\r\n\r\n    struct LandRequest{\r\n        uint reqId;\r\n        address sellerId;\r\n        address buyerId;\r\n        uint landId;\r\n    }\r\n\r\n    mapping(uint => Landreg) public lands;\r\n    mapping(uint => LandInspector) public InspectorMapping;\r\n    mapping(address => Seller) public SellerMapping;\r\n    mapping(address => Buyer) public BuyerMapping;\r\n    mapping(uint => LandRequest) public RequestsMapping;\r\n\r\n    mapping(address => bool) public RegisteredAddressMapping;\r\n    mapping(address => bool) public RegisteredSellerMapping;\r\n    mapping(address => bool) public RegisteredBuyerMapping;\r\n    mapping(address => bool) public SellerVerification;\r\n    mapping(address => bool) public SellerRejection;\r\n    mapping(address => bool) public BuyerVerification;\r\n    mapping(address => bool) public BuyerRejection;\r\n    mapping(uint => bool) public LandVerification;\r\n    mapping(uint => address) public LandOwner;\r\n    mapping(uint => bool) public RequestStatus;\r\n    mapping(uint => bool) public RequestedLands;\r\n    mapping(uint => bool) public PaymentReceived;\r\n\r\n    address public Land_Inspector;\r\n    address[] public sellers;\r\n    address[] public buyers;\r\n\r\n    uint public landsCount;\r\n    uint public inspectorsCount;\r\n    uint public sellersCount;\r\n    uint public buyersCount;\r\n    uint public requestsCount;\r\n\r\n    event Registration(address _registrationId);\r\n    event AddingLand(uint indexed _landId);\r\n    event Landrequested(address _sellerId);\r\n    event requestApproved(address _buyerId);\r\n    event Verified(address _id);\r\n    event Rejected(address _id);\r\n\r\n    constructor() public{\r\n        Land_Inspector = msg.sender ;\r\n        addLandInspector(\"Inspector 1\", 45, \"Tehsil Manager\");\r\n    }\r\n\r\n    function addLandInspector(string memory _name, uint _age, string memory _designation) private {\r\n        inspectorsCount++;\r\n        InspectorMapping[inspectorsCount] = LandInspector(inspectorsCount, _name, _age, _designation);\r\n    }\r\n\r\n    function getLandsCount() public view returns (uint) {\r\n        return landsCount;\r\n    }\r\n\r\n    function getBuyersCount() public view returns (uint) {\r\n        return buyersCount;\r\n    }\r\n\r\n    function getSellersCount() public view returns (uint) {\r\n        return sellersCount;\r\n    }\r\n\r\n    function getRequestsCount() public view returns (uint) {\r\n        return requestsCount;\r\n    }\r\n\r\n    function getArea(uint i) public view returns (uint) {\r\n        return lands[i].area;\r\n    }\r\n\r\n    function getCity(uint i) public view returns (string memory) {\r\n        return lands[i].city;\r\n    }\r\n\r\n    function getState(uint i) public view returns (string memory) {\r\n        return lands[i].state;\r\n    }\r\n\r\n    function getPrice(uint i) public view returns (uint) {\r\n        return lands[i].landPrice;\r\n    }\r\n\r\n    function getPID(uint i) public view returns (uint) {\r\n        return lands[i].propertyPID;\r\n    }\r\n\r\n    function getSurveyNumber(uint i) public view returns (uint) {\r\n        return lands[i].physicalSurveyNumber;\r\n    }\r\n\r\n    function getImage(uint i) public view returns (string memory) {\r\n        return lands[i].ipfsHash;\r\n    }\r\n\r\n    function getDocument(uint i) public view returns (string memory) {\r\n        return lands[i].document;\r\n    }\r\n\r\n    function getLandOwner(uint id) public view returns (address) {\r\n        return LandOwner[id];\r\n    }\r\n\r\n    function verifySeller(address _sellerId) public{\r\n        require(isLandInspector(msg.sender));\r\n        SellerVerification[_sellerId] = true;\r\n        emit Verified(_sellerId);\r\n    }\r\n\r\n    function rejectSeller(address _sellerId) public{\r\n        require(isLandInspector(msg.sender));\r\n        SellerRejection[_sellerId] = true;\r\n        emit Rejected(_sellerId);\r\n    }\r\n\r\n    function verifyBuyer(address _buyerId) public{\r\n        require(isLandInspector(msg.sender));\r\n        BuyerVerification[_buyerId] = true;\r\n        emit Verified(_buyerId);\r\n    }\r\n\r\n    function rejectBuyer(address _buyerId) public{\r\n        require(isLandInspector(msg.sender));\r\n        BuyerRejection[_buyerId] = true;\r\n        emit Rejected(_buyerId);\r\n    }\r\n\r\n    function verifyLand(uint _landId) public{\r\n        require(isLandInspector(msg.sender));\r\n        LandVerification[_landId] = true;\r\n    }\r\n\r\n    function isLandVerified(uint _id) public view returns (bool) {\r\n        if(LandVerification[_id]){\r\n            return true;\r\n        }\r\n    }\r\n\r\n    function isVerified(address _id) public view returns (bool) {\r\n        if(SellerVerification[_id] || BuyerVerification[_id]){\r\n            return true;\r\n        }\r\n    }\r\n\r\n    function isRejected(address _id) public view returns (bool) {\r\n        if(SellerRejection[_id] || BuyerRejection[_id]){\r\n            return true;\r\n        }\r\n    }\r\n\r\n    function isSeller(address _id) public view returns (bool) {\r\n        if(RegisteredSellerMapping[_id]){\r\n            return true;\r\n        }\r\n    }\r\n\r\n    function isLandInspector(address _id) public view returns (bool) {\r\n        if(Land_Inspector == _id){\r\n            return true;\r\n        }else{\r\n            return false;\r\n        }\r\n    }\r\n\r\n    function isBuyer(address _id) public view returns (bool) {\r\n        if(RegisteredBuyerMapping[_id]){\r\n            return true;\r\n        }\r\n    }\r\n    function isRegistered(address _id) public view returns (bool) {\r\n        if(RegisteredAddressMapping[_id]){\r\n            return true;\r\n        }\r\n    }\r\n\r\n    function addLand(uint _area, string memory _city,string memory _state, uint landPrice, uint _propertyPID,uint _surveyNum,string memory _ipfsHash, string memory _document) public {\r\n        require((isSeller(msg.sender)) && (isVerified(msg.sender)));\r\n        landsCount++;\r\n        lands[landsCount] = Landreg(landsCount, _area, _city, _state, landPrice,_propertyPID, _surveyNum, _ipfsHash, _document);\r\n        LandOwner[landsCount] = msg.sender;\r\n        emit AddingLand(landsCount);\r\n    }\r\n\r\n    function registerSeller(string memory _name, uint _age, string memory _aadharNumber, string memory _panNumber, string memory _landsOwned, string memory _document) public {\r\n        require(!RegisteredAddressMapping[msg.sender]);\r\n        RegisteredAddressMapping[msg.sender] = true;\r\n        RegisteredSellerMapping[msg.sender] = true ;\r\n        sellersCount++;\r\n        SellerMapping[msg.sender] = Seller(msg.sender, _name, _age, _aadharNumber,_panNumber, _landsOwned, _document);\r\n        sellers.push(msg.sender);\r\n        emit Registration(msg.sender);\r\n    }\r\n\r\n    function updateSeller(string memory _name, uint _age, string memory _aadharNumber, string memory _panNumber, string memory _landsOwned) public {\r\n        require(RegisteredAddressMapping[msg.sender] && (SellerMapping[msg.sender].id == msg.sender));\r\n        SellerMapping[msg.sender].name = _name;\r\n        SellerMapping[msg.sender].age = _age;\r\n        SellerMapping[msg.sender].aadharNumber = _aadharNumber;\r\n        SellerMapping[msg.sender].panNumber = _panNumber;\r\n        SellerMapping[msg.sender].landsOwned = _landsOwned;\r\n    }\r\n\r\n    function getSeller() public view returns( address [] memory ){\r\n        return(sellers);\r\n    }\r\n\r\n    function getSellerDetails(address i) public view returns (string memory, uint, string memory, string memory, string memory, string memory) {\r\n        return (SellerMapping[i].name, SellerMapping[i].age, SellerMapping[i].aadharNumber, SellerMapping[i].panNumber, SellerMapping[i].landsOwned, SellerMapping[i].document);\r\n    }\r\n\r\n    function registerBuyer(string memory _name, uint _age, string memory _city, string memory _aadharNumber, string memory _panNumber, string memory _document, string memory _email) public {\r\n        require(!RegisteredAddressMapping[msg.sender]);\r\n        RegisteredAddressMapping[msg.sender] = true;\r\n        RegisteredBuyerMapping[msg.sender] = true ;\r\n        buyersCount++;\r\n        BuyerMapping[msg.sender] = Buyer(msg.sender, _name, _age, _city, _aadharNumber, _panNumber, _document, _email);\r\n        buyers.push(msg.sender);\r\n        emit Registration(msg.sender);\r\n    }\r\n\r\n    function updateBuyer(string memory _name,uint _age, string memory _city,string memory _aadharNumber, string memory _email, string memory _panNumber) public {\r\n        require(RegisteredAddressMapping[msg.sender] && (BuyerMapping[msg.sender].id == msg.sender));\r\n        BuyerMapping[msg.sender].name = _name;\r\n        BuyerMapping[msg.sender].age = _age;\r\n        BuyerMapping[msg.sender].city = _city;\r\n        BuyerMapping[msg.sender].aadharNumber = _aadharNumber;\r\n        BuyerMapping[msg.sender].email = _email;\r\n        BuyerMapping[msg.sender].panNumber = _panNumber;\r\n    }\r\n\r\n    function getBuyer() public view returns( address [] memory ){\r\n        return(buyers);\r\n    }\r\n\r\n    function getBuyerDetails(address i) public view returns ( string memory,string memory, string memory, string memory, string memory, uint, string memory) {\r\n        return (BuyerMapping[i].name,BuyerMapping[i].city , BuyerMapping[i].panNumber, BuyerMapping[i].document, BuyerMapping[i].email, BuyerMapping[i].age, BuyerMapping[i].aadharNumber);\r\n    }\r\n\r\n    function requestLand(address _sellerId, uint _landId) public{\r\n        require(isBuyer(msg.sender) && isVerified(msg.sender));\r\n        requestsCount++;\r\n        RequestsMapping[requestsCount] = LandRequest(requestsCount, _sellerId, msg.sender, _landId);\r\n        RequestStatus[requestsCount] = false;\r\n        RequestedLands[requestsCount] = true;\r\n        emit Landrequested(_sellerId);\r\n    }\r\n\r\n    function getRequestDetails (uint i) public view returns (address, address, uint, bool) {\r\n        return(RequestsMapping[i].sellerId, RequestsMapping[i].buyerId, RequestsMapping[i].landId, RequestStatus[i]);\r\n    }\r\n\r\n    function isRequested(uint _id) public view returns (bool) {\r\n        if(RequestedLands[_id]){\r\n            return true;\r\n        }\r\n    }\r\n\r\n    function isApproved(uint _id) public view returns (bool) {\r\n        if(RequestStatus[_id]){\r\n            return true;\r\n        }\r\n    }\r\n\r\n    function approveRequest(uint _reqId) public {\r\n        require((isSeller(msg.sender)) && (isVerified(msg.sender)));\r\n        RequestStatus[_reqId] = true;\r\n    }\r\n\r\n    function LandOwnershipTransfer(uint _landId, address _newOwner) public{\r\n        require(isLandInspector(msg.sender));\r\n        LandOwner[_landId] = _newOwner;\r\n    }\r\n\r\n    function isPaid(uint _landId) public view returns (bool) {\r\n        if(PaymentReceived[_landId]){\r\n            return true;\r\n        }\r\n    }\r\n\r\n    function payment(address payable _receiver, uint _landId) public payable {\r\n        PaymentReceived[_landId] = true;\r\n        _receiver.transfer(msg.value);\r\n    }\r\n}",
  "sourcePath": "X:\\Elective_Project\\contracts\\Land.sol",
  "compiler": {
    "name": "solc",
    "version": "0.8.21+commit.d9974bed.Emscripten.clang"
  },
  "schemaVersion": "3.4.16",
  "updatedAt": "2025-11-24T15:18:24.154Z",
  "devdoc": {
    "kind": "dev",
    "methods": {},
    "version": 1
  },
  "userdoc": {
    "kind": "user",
    "methods": {},
    "version": 1
  }
}